{
  "_format": "hh-sol-artifact-1",
  "contractName": "TheMutantMushies",
  "sourceName": "contracts/TheMutantMushies.sol",
  "abi": [
    {
      "inputs": [
        {
          "internalType": "string",
          "name": "delayedRevealURI",
          "type": "string"
        },
        {
          "internalType": "address",
          "name": "revenueRecipient",
          "type": "address"
        }
      ],
      "stateMutability": "nonpayable",
      "type": "constructor"
    },
    {
      "anonymous": false,
      "inputs": [
        {
          "indexed": true,
          "internalType": "address",
          "name": "owner",
          "type": "address"
        },
        {
          "indexed": true,
          "internalType": "address",
          "name": "approved",
          "type": "address"
        },
        {
          "indexed": true,
          "internalType": "uint256",
          "name": "tokenId",
          "type": "uint256"
        }
      ],
      "name": "Approval",
      "type": "event"
    },
    {
      "anonymous": false,
      "inputs": [
        {
          "indexed": true,
          "internalType": "address",
          "name": "owner",
          "type": "address"
        },
        {
          "indexed": true,
          "internalType": "address",
          "name": "operator",
          "type": "address"
        },
        {
          "indexed": false,
          "internalType": "bool",
          "name": "approved",
          "type": "bool"
        }
      ],
      "name": "ApprovalForAll",
      "type": "event"
    },
    {
      "anonymous": false,
      "inputs": [
        {
          "indexed": true,
          "internalType": "address",
          "name": "previousOwner",
          "type": "address"
        },
        {
          "indexed": true,
          "internalType": "address",
          "name": "newOwner",
          "type": "address"
        }
      ],
      "name": "OwnershipTransferred",
      "type": "event"
    },
    {
      "anonymous": false,
      "inputs": [
        {
          "indexed": true,
          "internalType": "address",
          "name": "from",
          "type": "address"
        },
        {
          "indexed": true,
          "internalType": "address",
          "name": "to",
          "type": "address"
        },
        {
          "indexed": true,
          "internalType": "uint256",
          "name": "tokenId",
          "type": "uint256"
        }
      ],
      "name": "Transfer",
      "type": "event"
    },
    {
      "inputs": [],
      "name": "COLLECTION_SIZE",
      "outputs": [
        {
          "internalType": "uint256",
          "name": "",
          "type": "uint256"
        }
      ],
      "stateMutability": "view",
      "type": "function"
    },
    {
      "inputs": [],
      "name": "MINT_PRICE",
      "outputs": [
        {
          "internalType": "uint256",
          "name": "",
          "type": "uint256"
        }
      ],
      "stateMutability": "view",
      "type": "function"
    },
    {
      "inputs": [],
      "name": "TOKENS_PER_PERSON_LIMIT",
      "outputs": [
        {
          "internalType": "uint256",
          "name": "",
          "type": "uint256"
        }
      ],
      "stateMutability": "view",
      "type": "function"
    },
    {
      "inputs": [],
      "name": "TOKENS_PER_TRAN_LIMIT",
      "outputs": [
        {
          "internalType": "uint256",
          "name": "",
          "type": "uint256"
        }
      ],
      "stateMutability": "view",
      "type": "function"
    },
    {
      "inputs": [
        {
          "internalType": "address",
          "name": "to",
          "type": "address"
        },
        {
          "internalType": "uint256",
          "name": "tokenId",
          "type": "uint256"
        }
      ],
      "name": "approve",
      "outputs": [],
      "stateMutability": "nonpayable",
      "type": "function"
    },
    {
      "inputs": [
        {
          "internalType": "address",
          "name": "owner",
          "type": "address"
        }
      ],
      "name": "balanceOf",
      "outputs": [
        {
          "internalType": "uint256",
          "name": "",
          "type": "uint256"
        }
      ],
      "stateMutability": "view",
      "type": "function"
    },
    {
      "inputs": [],
      "name": "canReveal",
      "outputs": [
        {
          "internalType": "bool",
          "name": "",
          "type": "bool"
        }
      ],
      "stateMutability": "view",
      "type": "function"
    },
    {
      "inputs": [
        {
          "internalType": "uint256",
          "name": "tokenId",
          "type": "uint256"
        }
      ],
      "name": "getApproved",
      "outputs": [
        {
          "internalType": "address",
          "name": "",
          "type": "address"
        }
      ],
      "stateMutability": "view",
      "type": "function"
    },
    {
      "inputs": [
        {
          "internalType": "address",
          "name": "owner",
          "type": "address"
        },
        {
          "internalType": "address",
          "name": "operator",
          "type": "address"
        }
      ],
      "name": "isApprovedForAll",
      "outputs": [
        {
          "internalType": "bool",
          "name": "",
          "type": "bool"
        }
      ],
      "stateMutability": "view",
      "type": "function"
    },
    {
      "inputs": [
        {
          "internalType": "uint256",
          "name": "count",
          "type": "uint256"
        }
      ],
      "name": "mint",
      "outputs": [],
      "stateMutability": "payable",
      "type": "function"
    },
    {
      "inputs": [],
      "name": "name",
      "outputs": [
        {
          "internalType": "string",
          "name": "",
          "type": "string"
        }
      ],
      "stateMutability": "view",
      "type": "function"
    },
    {
      "inputs": [],
      "name": "owner",
      "outputs": [
        {
          "internalType": "address",
          "name": "",
          "type": "address"
        }
      ],
      "stateMutability": "view",
      "type": "function"
    },
    {
      "inputs": [
        {
          "internalType": "uint256",
          "name": "tokenId",
          "type": "uint256"
        }
      ],
      "name": "ownerOf",
      "outputs": [
        {
          "internalType": "address",
          "name": "",
          "type": "address"
        }
      ],
      "stateMutability": "view",
      "type": "function"
    },
    {
      "inputs": [],
      "name": "renounceOwnership",
      "outputs": [],
      "stateMutability": "nonpayable",
      "type": "function"
    },
    {
      "inputs": [
        {
          "internalType": "string",
          "name": "baseUri",
          "type": "string"
        }
      ],
      "name": "reveal",
      "outputs": [],
      "stateMutability": "nonpayable",
      "type": "function"
    },
    {
      "inputs": [
        {
          "internalType": "address",
          "name": "from",
          "type": "address"
        },
        {
          "internalType": "address",
          "name": "to",
          "type": "address"
        },
        {
          "internalType": "uint256",
          "name": "tokenId",
          "type": "uint256"
        }
      ],
      "name": "safeTransferFrom",
      "outputs": [],
      "stateMutability": "nonpayable",
      "type": "function"
    },
    {
      "inputs": [
        {
          "internalType": "address",
          "name": "from",
          "type": "address"
        },
        {
          "internalType": "address",
          "name": "to",
          "type": "address"
        },
        {
          "internalType": "uint256",
          "name": "tokenId",
          "type": "uint256"
        },
        {
          "internalType": "bytes",
          "name": "_data",
          "type": "bytes"
        }
      ],
      "name": "safeTransferFrom",
      "outputs": [],
      "stateMutability": "nonpayable",
      "type": "function"
    },
    {
      "inputs": [],
      "name": "saleStatus",
      "outputs": [
        {
          "internalType": "enum TheMutantMushies.SaleStatus",
          "name": "",
          "type": "uint8"
        }
      ],
      "stateMutability": "view",
      "type": "function"
    },
    {
      "inputs": [
        {
          "internalType": "address",
          "name": "operator",
          "type": "address"
        },
        {
          "internalType": "bool",
          "name": "approved",
          "type": "bool"
        }
      ],
      "name": "setApprovalForAll",
      "outputs": [],
      "stateMutability": "nonpayable",
      "type": "function"
    },
    {
      "inputs": [
        {
          "internalType": "string",
          "name": "uri",
          "type": "string"
        }
      ],
      "name": "setHiddenUri",
      "outputs": [],
      "stateMutability": "nonpayable",
      "type": "function"
    },
    {
      "inputs": [
        {
          "internalType": "enum TheMutantMushies.SaleStatus",
          "name": "status",
          "type": "uint8"
        }
      ],
      "name": "setSaleStatus",
      "outputs": [],
      "stateMutability": "nonpayable",
      "type": "function"
    },
    {
      "inputs": [
        {
          "internalType": "bytes4",
          "name": "interfaceId",
          "type": "bytes4"
        }
      ],
      "name": "supportsInterface",
      "outputs": [
        {
          "internalType": "bool",
          "name": "",
          "type": "bool"
        }
      ],
      "stateMutability": "view",
      "type": "function"
    },
    {
      "inputs": [],
      "name": "symbol",
      "outputs": [
        {
          "internalType": "string",
          "name": "",
          "type": "string"
        }
      ],
      "stateMutability": "view",
      "type": "function"
    },
    {
      "inputs": [
        {
          "internalType": "uint256",
          "name": "tokenId",
          "type": "uint256"
        }
      ],
      "name": "tokenURI",
      "outputs": [
        {
          "internalType": "string",
          "name": "",
          "type": "string"
        }
      ],
      "stateMutability": "view",
      "type": "function"
    },
    {
      "inputs": [],
      "name": "totalSupply",
      "outputs": [
        {
          "internalType": "uint256",
          "name": "",
          "type": "uint256"
        }
      ],
      "stateMutability": "view",
      "type": "function"
    },
    {
      "inputs": [
        {
          "internalType": "address",
          "name": "from",
          "type": "address"
        },
        {
          "internalType": "address",
          "name": "to",
          "type": "address"
        },
        {
          "internalType": "uint256",
          "name": "tokenId",
          "type": "uint256"
        }
      ],
      "name": "transferFrom",
      "outputs": [],
      "stateMutability": "nonpayable",
      "type": "function"
    },
    {
      "inputs": [
        {
          "internalType": "address",
          "name": "newOwner",
          "type": "address"
        }
      ],
      "name": "transferOwnership",
      "outputs": [],
      "stateMutability": "nonpayable",
      "type": "function"
    },
    {
      "inputs": [],
      "name": "withdraw",
      "outputs": [],
      "stateMutability": "nonpayable",
      "type": "function"
    }
  ],
  "bytecode": "0x60a06040526000600860006101000a81548160ff021916908360018111156200002d576200002c62000546565b5b02179055506000600860016101000a81548160ff0219169083151502179055503480156200005a57600080fd5b5060405162004194380380620041948339818101604052810190620000809190620003ab565b6040518060400160405280601081526020017f5468654d7574616e744d757368696573000000000000000000000000000000008152506040518060400160405280600381526020017f544d4d000000000000000000000000000000000000000000000000000000000081525081600090805190602001906200010492919062000266565b5080600190805190602001906200011d92919062000266565b50505062000140620001346200019860201b60201c565b620001a060201b60201c565b81600990805190602001906200015892919062000266565b508073ffffffffffffffffffffffffffffffffffffffff1660808173ffffffffffffffffffffffffffffffffffffffff1660601b81525050505062000612565b600033905090565b6000600660009054906101000a900473ffffffffffffffffffffffffffffffffffffffff16905081600660006101000a81548173ffffffffffffffffffffffffffffffffffffffff021916908373ffffffffffffffffffffffffffffffffffffffff1602179055508173ffffffffffffffffffffffffffffffffffffffff168173ffffffffffffffffffffffffffffffffffffffff167f8be0079c531659141344cd1fd0a4f28419497f9722a3daafe3b4186f6b6457e060405160405180910390a35050565b8280546200027490620004da565b90600052602060002090601f016020900481019282620002985760008555620002e4565b82601f10620002b357805160ff1916838001178555620002e4565b82800160010185558215620002e4579182015b82811115620002e3578251825591602001919060010190620002c6565b5b509050620002f39190620002f7565b5090565b5b8082111562000312576000816000905550600101620002f8565b5090565b60006200032d62000327846200043a565b62000411565b9050828152602081018484840111156200034c576200034b620005d8565b5b62000359848285620004a4565b509392505050565b6000815190506200037281620005f8565b92915050565b600082601f83011262000390576200038f620005d3565b5b8151620003a284826020860162000316565b91505092915050565b60008060408385031215620003c557620003c4620005e2565b5b600083015167ffffffffffffffff811115620003e657620003e5620005dd565b5b620003f48582860162000378565b9250506020620004078582860162000361565b9150509250929050565b60006200041d62000430565b90506200042b828262000510565b919050565b6000604051905090565b600067ffffffffffffffff821115620004585762000457620005a4565b5b6200046382620005e7565b9050602081019050919050565b60006200047d8262000484565b9050919050565b600073ffffffffffffffffffffffffffffffffffffffff82169050919050565b60005b83811015620004c4578082015181840152602081019050620004a7565b83811115620004d4576000848401525b50505050565b60006002820490506001821680620004f357607f821691505b602082108114156200050a576200050962000575565b5b50919050565b6200051b82620005e7565b810181811067ffffffffffffffff821117156200053d576200053c620005a4565b5b80604052505050565b7f4e487b7100000000000000000000000000000000000000000000000000000000600052602160045260246000fd5b7f4e487b7100000000000000000000000000000000000000000000000000000000600052602260045260246000fd5b7f4e487b7100000000000000000000000000000000000000000000000000000000600052604160045260246000fd5b600080fd5b600080fd5b600080fd5b600080fd5b6000601f19601f8301169050919050565b620006038162000470565b81146200060f57600080fd5b50565b60805160601c613b63620006316000396000610b760152613b636000f3fe6080604052600436106101b75760003560e01c8063715018a6116100ec578063b88d4fde1161008a578063d8258d9511610064578063d8258d95146105d7578063e985e9c514610602578063f2fde38b1461063f578063f9020e3314610668576101b7565b8063b88d4fde14610546578063c002d23d1461056f578063c87b56dd1461059a576101b7565b806395d89b41116100c657806395d89b41146104ab578063a0712d68146104d6578063a22cb465146104f2578063a98426101461051b576101b7565b8063715018a61461043e5780638da5cb5b1461045557806395c7077814610480576101b7565b8063296169d6116101595780634891ad88116101335780634891ad88146103725780634c2612471461039b5780636352211e146103c457806370a0823114610401576101b7565b8063296169d6146103075780633ccfd60b1461033257806342842e0e14610349576101b7565b8063095ea7b311610195578063095ea7b3146102615780631067fcc71461028a57806318160ddd146102b357806323b872dd146102de576101b7565b806301ffc9a7146101bc57806306fdde03146101f9578063081812fc14610224575b600080fd5b3480156101c857600080fd5b506101e360048036038101906101de919061274a565b610693565b6040516101f09190612ce1565b60405180910390f35b34801561020557600080fd5b5061020e610775565b60405161021b9190612d17565b60405180910390f35b34801561023057600080fd5b5061024b6004803603810190610246919061281a565b610807565b6040516102589190612c7a565b60405180910390f35b34801561026d57600080fd5b506102886004803603810190610283919061270a565b61088c565b005b34801561029657600080fd5b506102b160048036038101906102ac91906127d1565b6109a4565b005b3480156102bf57600080fd5b506102c8610a3a565b6040516102d59190612ff9565b60405180910390f35b3480156102ea57600080fd5b50610305600480360381019061030091906125f4565b610a4b565b005b34801561031357600080fd5b5061031c610aab565b6040516103299190612ff9565b60405180910390f35b34801561033e57600080fd5b50610347610ab0565b005b34801561035557600080fd5b50610370600480360381019061036b91906125f4565b610bde565b005b34801561037e57600080fd5b50610399600480360381019061039491906127a4565b610bfe565b005b3480156103a757600080fd5b506103c260048036038101906103bd91906127d1565b610ca7565b005b3480156103d057600080fd5b506103eb60048036038101906103e6919061281a565b610da8565b6040516103f89190612c7a565b60405180910390f35b34801561040d57600080fd5b5061042860048036038101906104239190612587565b610e5a565b6040516104359190612ff9565b60405180910390f35b34801561044a57600080fd5b50610453610f12565b005b34801561046157600080fd5b5061046a610f9a565b6040516104779190612c7a565b60405180910390f35b34801561048c57600080fd5b50610495610fc4565b6040516104a29190612ff9565b60405180910390f35b3480156104b757600080fd5b506104c0610fc9565b6040516104cd9190612d17565b60405180910390f35b6104f060048036038101906104eb919061281a565b61105b565b005b3480156104fe57600080fd5b50610519600480360381019061051491906126ca565b611271565b005b34801561052757600080fd5b50610530611287565b60405161053d9190612ce1565b60405180910390f35b34801561055257600080fd5b5061056d60048036038101906105689190612647565b61129a565b005b34801561057b57600080fd5b506105846112fc565b6040516105919190612ff9565b60405180910390f35b3480156105a657600080fd5b506105c160048036038101906105bc919061281a565b611307565b6040516105ce9190612d17565b60405180910390f35b3480156105e357600080fd5b506105ec61142e565b6040516105f99190612ff9565b60405180910390f35b34801561060e57600080fd5b50610629600480360381019061062491906125b4565b611434565b6040516106369190612ce1565b60405180910390f35b34801561064b57600080fd5b5061066660048036038101906106619190612587565b6114c8565b005b34801561067457600080fd5b5061067d6115c0565b60405161068a9190612cfc565b60405180910390f35b60007f80ac58cd000000000000000000000000000000000000000000000000000000007bffffffffffffffffffffffffffffffffffffffffffffffffffffffff1916827bffffffffffffffffffffffffffffffffffffffffffffffffffffffff1916148061075e57507f5b5e139f000000000000000000000000000000000000000000000000000000007bffffffffffffffffffffffffffffffffffffffffffffffffffffffff1916827bffffffffffffffffffffffffffffffffffffffffffffffffffffffff1916145b8061076e575061076d826115d3565b5b9050919050565b606060008054610784906132ce565b80601f01602080910402602001604051908101604052809291908181526020018280546107b0906132ce565b80156107fd5780601f106107d2576101008083540402835291602001916107fd565b820191906000526020600020905b8154815290600101906020018083116107e057829003601f168201915b5050505050905090565b60006108128261163d565b610851576040517f08c379a000000000000000000000000000000000000000000000000000000000815260040161084890612f39565b60405180910390fd5b6004600083815260200190815260200160002060009054906101000a900473ffffffffffffffffffffffffffffffffffffffff169050919050565b600061089782610da8565b90508073ffffffffffffffffffffffffffffffffffffffff168373ffffffffffffffffffffffffffffffffffffffff161415610908576040517f08c379a00000000000000000000000000000000000000000000000000000000081526004016108ff90612fb9565b60405180910390fd5b8073ffffffffffffffffffffffffffffffffffffffff166109276116a9565b73ffffffffffffffffffffffffffffffffffffffff1614806109565750610955816109506116a9565b611434565b5b610995576040517f08c379a000000000000000000000000000000000000000000000000000000000815260040161098c90612e59565b60405180910390fd5b61099f83836116b1565b505050565b6109ac6116a9565b73ffffffffffffffffffffffffffffffffffffffff166109ca610f9a565b73ffffffffffffffffffffffffffffffffffffffff1614610a20576040517f08c379a0000000000000000000000000000000000000000000000000000000008152600401610a1790612f59565b60405180910390fd5b8060099080519060200190610a36929190612386565b5050565b6000610a46600761176a565b905090565b610a5c610a566116a9565b82611778565b610a9b576040517f08c379a0000000000000000000000000000000000000000000000000000000008152600401610a9290612fd9565b60405180910390fd5b610aa6838383611856565b505050565b600281565b610ab86116a9565b73ffffffffffffffffffffffffffffffffffffffff16610ad6610f9a565b73ffffffffffffffffffffffffffffffffffffffff1614610b2c576040517f08c379a0000000000000000000000000000000000000000000000000000000008152600401610b2390612f59565b60405180910390fd5b600047905060008111610b74576040517f08c379a0000000000000000000000000000000000000000000000000000000008152600401610b6b90612dd9565b60405180910390fd5b7f000000000000000000000000000000000000000000000000000000000000000073ffffffffffffffffffffffffffffffffffffffff166108fc829081150290604051600060405180830381858888f19350505050158015610bda573d6000803e3d6000fd5b5050565b610bf98383836040518060200160405280600081525061129a565b505050565b610c066116a9565b73ffffffffffffffffffffffffffffffffffffffff16610c24610f9a565b73ffffffffffffffffffffffffffffffffffffffff1614610c7a576040517f08c379a0000000000000000000000000000000000000000000000000000000008152600401610c7190612f59565b60405180910390fd5b80600860006101000a81548160ff02191690836001811115610c9f57610c9e613409565b5b021790555050565b610caf6116a9565b73ffffffffffffffffffffffffffffffffffffffff16610ccd610f9a565b73ffffffffffffffffffffffffffffffffffffffff1614610d23576040517f08c379a0000000000000000000000000000000000000000000000000000000008152600401610d1a90612f59565b60405180910390fd5b600860019054906101000a900460ff1615610d73576040517f08c379a0000000000000000000000000000000000000000000000000000000008152600401610d6a90612d59565b60405180910390fd5b80600a9080519060200190610d89929190612386565b506001600860016101000a81548160ff02191690831515021790555050565b6000806002600084815260200190815260200160002060009054906101000a900473ffffffffffffffffffffffffffffffffffffffff169050600073ffffffffffffffffffffffffffffffffffffffff168173ffffffffffffffffffffffffffffffffffffffff161415610e51576040517f08c379a0000000000000000000000000000000000000000000000000000000008152600401610e4890612e99565b60405180910390fd5b80915050919050565b60008073ffffffffffffffffffffffffffffffffffffffff168273ffffffffffffffffffffffffffffffffffffffff161415610ecb576040517f08c379a0000000000000000000000000000000000000000000000000000000008152600401610ec290612e79565b60405180910390fd5b600360008373ffffffffffffffffffffffffffffffffffffffff1673ffffffffffffffffffffffffffffffffffffffff168152602001908152602001600020549050919050565b610f1a6116a9565b73ffffffffffffffffffffffffffffffffffffffff16610f38610f9a565b73ffffffffffffffffffffffffffffffffffffffff1614610f8e576040517f08c379a0000000000000000000000000000000000000000000000000000000008152600401610f8590612f59565b60405180910390fd5b610f986000611ab2565b565b6000600660009054906101000a900473ffffffffffffffffffffffffffffffffffffffff16905090565b600281565b606060018054610fd8906132ce565b80601f0160208091040260200160405190810160405280929190818152602001828054611004906132ce565b80156110515780601f1061102657610100808354040283529160200191611051565b820191906000526020600020905b81548152906001019060200180831161103457829003601f168201915b5050505050905090565b6000600181111561106f5761106e613409565b5b600860009054906101000a900460ff16600181111561109157611090613409565b5b14156110d2576040517f08c379a00000000000000000000000000000000000000000000000000000000081526004016110c990612eb9565b60405180910390fd5b66f5232269808000816110e59190613165565b341015611127576040517f08c379a000000000000000000000000000000000000000000000000000000000815260040161111e90612f19565b60405180910390fd5b6101a481611135600761176a565b61113f91906130de565b1115611180576040517f08c379a000000000000000000000000000000000000000000000000000000000815260040161117790612ed9565b60405180910390fd5b600281600b60003373ffffffffffffffffffffffffffffffffffffffff1673ffffffffffffffffffffffffffffffffffffffff168152602001908152602001600020546111cd91906130de565b111561120e576040517f08c379a000000000000000000000000000000000000000000000000000000000815260040161120590612d39565b60405180910390fd5b80600b60003373ffffffffffffffffffffffffffffffffffffffff1673ffffffffffffffffffffffffffffffffffffffff168152602001908152602001600020600082825461125d91906130de565b9250508190555061126e3382611b78565b50565b61128361127c6116a9565b8383611bbe565b5050565b600860019054906101000a900460ff1681565b6112ab6112a56116a9565b83611778565b6112ea576040517f08c379a00000000000000000000000000000000000000000000000000000000081526004016112e190612fd9565b60405180910390fd5b6112f684848484611d2b565b50505050565b66f523226980800081565b60606113128261163d565b611351576040517f08c379a000000000000000000000000000000000000000000000000000000000815260040161134890612f99565b60405180910390fd5b600860019054906101000a900460ff166113f55760098054611372906132ce565b80601f016020809104026020016040519081016040528092919081815260200182805461139e906132ce565b80156113eb5780601f106113c0576101008083540402835291602001916113eb565b820191906000526020600020905b8154815290600101906020018083116113ce57829003601f168201915b5050505050611427565b6113fd611d87565b61140683611e19565b604051602001611417929190612c4b565b6040516020818303038152906040525b9050919050565b6101a481565b6000600560008473ffffffffffffffffffffffffffffffffffffffff1673ffffffffffffffffffffffffffffffffffffffff16815260200190815260200160002060008373ffffffffffffffffffffffffffffffffffffffff1673ffffffffffffffffffffffffffffffffffffffff16815260200190815260200160002060009054906101000a900460ff16905092915050565b6114d06116a9565b73ffffffffffffffffffffffffffffffffffffffff166114ee610f9a565b73ffffffffffffffffffffffffffffffffffffffff1614611544576040517f08c379a000000000000000000000000000000000000000000000000000000000815260040161153b90612f59565b60405180910390fd5b600073ffffffffffffffffffffffffffffffffffffffff168173ffffffffffffffffffffffffffffffffffffffff1614156115b4576040517f08c379a00000000000000000000000000000000000000000000000000000000081526004016115ab90612d99565b60405180910390fd5b6115bd81611ab2565b50565b600860009054906101000a900460ff1681565b60007f01ffc9a7000000000000000000000000000000000000000000000000000000007bffffffffffffffffffffffffffffffffffffffffffffffffffffffff1916827bffffffffffffffffffffffffffffffffffffffffffffffffffffffff1916149050919050565b60008073ffffffffffffffffffffffffffffffffffffffff166002600084815260200190815260200160002060009054906101000a900473ffffffffffffffffffffffffffffffffffffffff1673ffffffffffffffffffffffffffffffffffffffff1614159050919050565b600033905090565b816004600083815260200190815260200160002060006101000a81548173ffffffffffffffffffffffffffffffffffffffff021916908373ffffffffffffffffffffffffffffffffffffffff160217905550808273ffffffffffffffffffffffffffffffffffffffff1661172483610da8565b73ffffffffffffffffffffffffffffffffffffffff167f8c5be1e5ebec7d5bd14f71427d1e84f3dd0314c0f7b2291e5b200ac8c7c3b92560405160405180910390a45050565b600081600001549050919050565b60006117838261163d565b6117c2576040517f08c379a00000000000000000000000000000000000000000000000000000000081526004016117b990612e39565b60405180910390fd5b60006117cd83610da8565b90508073ffffffffffffffffffffffffffffffffffffffff168473ffffffffffffffffffffffffffffffffffffffff16148061183c57508373ffffffffffffffffffffffffffffffffffffffff1661182484610807565b73ffffffffffffffffffffffffffffffffffffffff16145b8061184d575061184c8185611434565b5b91505092915050565b8273ffffffffffffffffffffffffffffffffffffffff1661187682610da8565b73ffffffffffffffffffffffffffffffffffffffff16146118cc576040517f08c379a00000000000000000000000000000000000000000000000000000000081526004016118c390612f79565b60405180910390fd5b600073ffffffffffffffffffffffffffffffffffffffff168273ffffffffffffffffffffffffffffffffffffffff16141561193c576040517f08c379a000000000000000000000000000000000000000000000000000000000815260040161193390612df9565b60405180910390fd5b611947838383611f7a565b6119526000826116b1565b6001600360008573ffffffffffffffffffffffffffffffffffffffff1673ffffffffffffffffffffffffffffffffffffffff16815260200190815260200160002060008282546119a291906131bf565b925050819055506001600360008473ffffffffffffffffffffffffffffffffffffffff1673ffffffffffffffffffffffffffffffffffffffff16815260200190815260200160002060008282546119f991906130de565b92505081905550816002600083815260200190815260200160002060006101000a81548173ffffffffffffffffffffffffffffffffffffffff021916908373ffffffffffffffffffffffffffffffffffffffff160217905550808273ffffffffffffffffffffffffffffffffffffffff168473ffffffffffffffffffffffffffffffffffffffff167fddf252ad1be2c89b69c2b068fc378daa952ba7f163c4a11628f55a4df523b3ef60405160405180910390a4505050565b6000600660009054906101000a900473ffffffffffffffffffffffffffffffffffffffff16905081600660006101000a81548173ffffffffffffffffffffffffffffffffffffffff021916908373ffffffffffffffffffffffffffffffffffffffff1602179055508173ffffffffffffffffffffffffffffffffffffffff168173ffffffffffffffffffffffffffffffffffffffff167f8be0079c531659141344cd1fd0a4f28419497f9722a3daafe3b4186f6b6457e060405160405180910390a35050565b60005b81811015611bb957611b8d6007611f7f565b6000611b99600761176a565b9050611ba58482611f95565b508080611bb190613331565b915050611b7b565b505050565b8173ffffffffffffffffffffffffffffffffffffffff168373ffffffffffffffffffffffffffffffffffffffff161415611c2d576040517f08c379a0000000000000000000000000000000000000000000000000000000008152600401611c2490612e19565b60405180910390fd5b80600560008573ffffffffffffffffffffffffffffffffffffffff1673ffffffffffffffffffffffffffffffffffffffff16815260200190815260200160002060008473ffffffffffffffffffffffffffffffffffffffff1673ffffffffffffffffffffffffffffffffffffffff16815260200190815260200160002060006101000a81548160ff0219169083151502179055508173ffffffffffffffffffffffffffffffffffffffff168373ffffffffffffffffffffffffffffffffffffffff167f17307eab39ab6107e8899845ad3d59bd9653f200f220920489ca2b5937696c3183604051611d1e9190612ce1565b60405180910390a3505050565b611d36848484611856565b611d4284848484611fb3565b611d81576040517f08c379a0000000000000000000000000000000000000000000000000000000008152600401611d7890612d79565b60405180910390fd5b50505050565b6060600a8054611d96906132ce565b80601f0160208091040260200160405190810160405280929190818152602001828054611dc2906132ce565b8015611e0f5780601f10611de457610100808354040283529160200191611e0f565b820191906000526020600020905b815481529060010190602001808311611df257829003601f168201915b5050505050905090565b60606000821415611e61576040518060400160405280600181526020017f30000000000000000000000000000000000000000000000000000000000000008152509050611f75565b600082905060005b60008214611e93578080611e7c90613331565b915050600a82611e8c9190613134565b9150611e69565b60008167ffffffffffffffff811115611eaf57611eae613496565b5b6040519080825280601f01601f191660200182016040528015611ee15781602001600182028036833780820191505090505b5090505b60008514611f6e57600182611efa91906131bf565b9150600a85611f09919061337a565b6030611f1591906130de565b60f81b818381518110611f2b57611f2a613467565b5b60200101907effffffffffffffffffffffffffffffffffffffffffffffffffffffffffffff1916908160001a905350600a85611f679190613134565b9450611ee5565b8093505050505b919050565b505050565b6001816000016000828254019250508190555050565b611faf82826040518060200160405280600081525061214a565b5050565b6000611fd48473ffffffffffffffffffffffffffffffffffffffff166121a5565b1561213d578373ffffffffffffffffffffffffffffffffffffffff1663150b7a02611ffd6116a9565b8786866040518563ffffffff1660e01b815260040161201f9493929190612c95565b602060405180830381600087803b15801561203957600080fd5b505af192505050801561206a57506040513d601f19601f820116820180604052508101906120679190612777565b60015b6120ed573d806000811461209a576040519150601f19603f3d011682016040523d82523d6000602084013e61209f565b606091505b506000815114156120e5576040517f08c379a00000000000000000000000000000000000000000000000000000000081526004016120dc90612d79565b60405180910390fd5b805181602001fd5b63150b7a0260e01b7bffffffffffffffffffffffffffffffffffffffffffffffffffffffff1916817bffffffffffffffffffffffffffffffffffffffffffffffffffffffff191614915050612142565b600190505b949350505050565b61215483836121b8565b6121616000848484611fb3565b6121a0576040517f08c379a000000000000000000000000000000000000000000000000000000000815260040161219790612d79565b60405180910390fd5b505050565b600080823b905060008111915050919050565b600073ffffffffffffffffffffffffffffffffffffffff168273ffffffffffffffffffffffffffffffffffffffff161415612228576040517f08c379a000000000000000000000000000000000000000000000000000000000815260040161221f90612ef9565b60405180910390fd5b6122318161163d565b15612271576040517f08c379a000000000000000000000000000000000000000000000000000000000815260040161226890612db9565b60405180910390fd5b61227d60008383611f7a565b6001600360008473ffffffffffffffffffffffffffffffffffffffff1673ffffffffffffffffffffffffffffffffffffffff16815260200190815260200160002060008282546122cd91906130de565b92505081905550816002600083815260200190815260200160002060006101000a81548173ffffffffffffffffffffffffffffffffffffffff021916908373ffffffffffffffffffffffffffffffffffffffff160217905550808273ffffffffffffffffffffffffffffffffffffffff16600073ffffffffffffffffffffffffffffffffffffffff167fddf252ad1be2c89b69c2b068fc378daa952ba7f163c4a11628f55a4df523b3ef60405160405180910390a45050565b828054612392906132ce565b90600052602060002090601f0160209004810192826123b457600085556123fb565b82601f106123cd57805160ff19168380011785556123fb565b828001600101855582156123fb579182015b828111156123fa5782518255916020019190600101906123df565b5b509050612408919061240c565b5090565b5b8082111561242557600081600090555060010161240d565b5090565b600061243c61243784613039565b613014565b905082815260208101848484011115612458576124576134ca565b5b61246384828561328c565b509392505050565b600061247e6124798461306a565b613014565b90508281526020810184848401111561249a576124996134ca565b5b6124a584828561328c565b509392505050565b6000813590506124bc81613ac1565b92915050565b6000813590506124d181613ad8565b92915050565b6000813590506124e681613aef565b92915050565b6000815190506124fb81613aef565b92915050565b600082601f830112612516576125156134c5565b5b8135612526848260208601612429565b91505092915050565b60008135905061253e81613b06565b92915050565b600082601f830112612559576125586134c5565b5b813561256984826020860161246b565b91505092915050565b60008135905061258181613b16565b92915050565b60006020828403121561259d5761259c6134d4565b5b60006125ab848285016124ad565b91505092915050565b600080604083850312156125cb576125ca6134d4565b5b60006125d9858286016124ad565b92505060206125ea858286016124ad565b9150509250929050565b60008060006060848603121561260d5761260c6134d4565b5b600061261b868287016124ad565b935050602061262c868287016124ad565b925050604061263d86828701612572565b9150509250925092565b60008060008060808587031215612661576126606134d4565b5b600061266f878288016124ad565b9450506020612680878288016124ad565b935050604061269187828801612572565b925050606085013567ffffffffffffffff8111156126b2576126b16134cf565b5b6126be87828801612501565b91505092959194509250565b600080604083850312156126e1576126e06134d4565b5b60006126ef858286016124ad565b9250506020612700858286016124c2565b9150509250929050565b60008060408385031215612721576127206134d4565b5b600061272f858286016124ad565b925050602061274085828601612572565b9150509250929050565b6000602082840312156127605761275f6134d4565b5b600061276e848285016124d7565b91505092915050565b60006020828403121561278d5761278c6134d4565b5b600061279b848285016124ec565b91505092915050565b6000602082840312156127ba576127b96134d4565b5b60006127c88482850161252f565b91505092915050565b6000602082840312156127e7576127e66134d4565b5b600082013567ffffffffffffffff811115612805576128046134cf565b5b61281184828501612544565b91505092915050565b6000602082840312156128305761282f6134d4565b5b600061283e84828501612572565b91505092915050565b612850816131f3565b82525050565b61285f81613205565b82525050565b60006128708261309b565b61287a81856130b1565b935061288a81856020860161329b565b612893816134d9565b840191505092915050565b6128a78161327a565b82525050565b60006128b8826130a6565b6128c281856130c2565b93506128d281856020860161329b565b6128db816134d9565b840191505092915050565b60006128f1826130a6565b6128fb81856130d3565b935061290b81856020860161329b565b80840191505092915050565b60006129246017836130c2565b915061292f826134ea565b602082019050919050565b60006129476011836130c2565b915061295282613513565b602082019050919050565b600061296a6032836130c2565b91506129758261353c565b604082019050919050565b600061298d6026836130c2565b91506129988261358b565b604082019050919050565b60006129b0601c836130c2565b91506129bb826135da565b602082019050919050565b60006129d3600a836130c2565b91506129de82613603565b602082019050919050565b60006129f66024836130c2565b9150612a018261362c565b604082019050919050565b6000612a196019836130c2565b9150612a248261367b565b602082019050919050565b6000612a3c602c836130c2565b9150612a47826136a4565b604082019050919050565b6000612a5f6038836130c2565b9150612a6a826136f3565b604082019050919050565b6000612a82602a836130c2565b9150612a8d82613742565b604082019050919050565b6000612aa56029836130c2565b9150612ab082613791565b604082019050919050565b6000612ac8600d836130c2565b9150612ad3826137e0565b602082019050919050565b6000612aeb6036836130c2565b9150612af682613809565b604082019050919050565b6000612b0e6020836130c2565b9150612b1982613858565b602082019050919050565b6000612b316022836130c2565b9150612b3c82613881565b604082019050919050565b6000612b54602c836130c2565b9150612b5f826138d0565b604082019050919050565b6000612b776005836130d3565b9150612b828261391f565b600582019050919050565b6000612b9a6020836130c2565b9150612ba582613948565b602082019050919050565b6000612bbd6029836130c2565b9150612bc882613971565b604082019050919050565b6000612be0602f836130c2565b9150612beb826139c0565b604082019050919050565b6000612c036021836130c2565b9150612c0e82613a0f565b604082019050919050565b6000612c266031836130c2565b9150612c3182613a5e565b604082019050919050565b612c4581613270565b82525050565b6000612c5782856128e6565b9150612c6382846128e6565b9150612c6e82612b6a565b91508190509392505050565b6000602082019050612c8f6000830184612847565b92915050565b6000608082019050612caa6000830187612847565b612cb76020830186612847565b612cc46040830185612c3c565b8181036060830152612cd68184612865565b905095945050505050565b6000602082019050612cf66000830184612856565b92915050565b6000602082019050612d11600083018461289e565b92915050565b60006020820190508181036000830152612d3181846128ad565b905092915050565b60006020820190508181036000830152612d5281612917565b9050919050565b60006020820190508181036000830152612d728161293a565b9050919050565b60006020820190508181036000830152612d928161295d565b9050919050565b60006020820190508181036000830152612db281612980565b9050919050565b60006020820190508181036000830152612dd2816129a3565b9050919050565b60006020820190508181036000830152612df2816129c6565b9050919050565b60006020820190508181036000830152612e12816129e9565b9050919050565b60006020820190508181036000830152612e3281612a0c565b9050919050565b60006020820190508181036000830152612e5281612a2f565b9050919050565b60006020820190508181036000830152612e7281612a52565b9050919050565b60006020820190508181036000830152612e9281612a75565b9050919050565b60006020820190508181036000830152612eb281612a98565b9050919050565b60006020820190508181036000830152612ed281612abb565b9050919050565b60006020820190508181036000830152612ef281612ade565b9050919050565b60006020820190508181036000830152612f1281612b01565b9050919050565b60006020820190508181036000830152612f3281612b24565b9050919050565b60006020820190508181036000830152612f5281612b47565b9050919050565b60006020820190508181036000830152612f7281612b8d565b9050919050565b60006020820190508181036000830152612f9281612bb0565b9050919050565b60006020820190508181036000830152612fb281612bd3565b9050919050565b60006020820190508181036000830152612fd281612bf6565b9050919050565b60006020820190508181036000830152612ff281612c19565b9050919050565b600060208201905061300e6000830184612c3c565b92915050565b600061301e61302f565b905061302a8282613300565b919050565b6000604051905090565b600067ffffffffffffffff82111561305457613053613496565b5b61305d826134d9565b9050602081019050919050565b600067ffffffffffffffff82111561308557613084613496565b5b61308e826134d9565b9050602081019050919050565b600081519050919050565b600081519050919050565b600082825260208201905092915050565b600082825260208201905092915050565b600081905092915050565b60006130e982613270565b91506130f483613270565b9250827fffffffffffffffffffffffffffffffffffffffffffffffffffffffffffffffff03821115613129576131286133ab565b5b828201905092915050565b600061313f82613270565b915061314a83613270565b92508261315a576131596133da565b5b828204905092915050565b600061317082613270565b915061317b83613270565b9250817fffffffffffffffffffffffffffffffffffffffffffffffffffffffffffffffff04831182151516156131b4576131b36133ab565b5b828202905092915050565b60006131ca82613270565b91506131d583613270565b9250828210156131e8576131e76133ab565b5b828203905092915050565b60006131fe82613250565b9050919050565b60008115159050919050565b60007fffffffff0000000000000000000000000000000000000000000000000000000082169050919050565b600081905061324b82613aad565b919050565b600073ffffffffffffffffffffffffffffffffffffffff82169050919050565b6000819050919050565b60006132858261323d565b9050919050565b82818337600083830152505050565b60005b838110156132b957808201518184015260208101905061329e565b838111156132c8576000848401525b50505050565b600060028204905060018216806132e657607f821691505b602082108114156132fa576132f9613438565b5b50919050565b613309826134d9565b810181811067ffffffffffffffff8211171561332857613327613496565b5b80604052505050565b600061333c82613270565b91507fffffffffffffffffffffffffffffffffffffffffffffffffffffffffffffffff82141561336f5761336e6133ab565b5b600182019050919050565b600061338582613270565b915061339083613270565b9250826133a05761339f6133da565b5b828206905092915050565b7f4e487b7100000000000000000000000000000000000000000000000000000000600052601160045260246000fd5b7f4e487b7100000000000000000000000000000000000000000000000000000000600052601260045260246000fd5b7f4e487b7100000000000000000000000000000000000000000000000000000000600052602160045260246000fd5b7f4e487b7100000000000000000000000000000000000000000000000000000000600052602260045260246000fd5b7f4e487b7100000000000000000000000000000000000000000000000000000000600052603260045260246000fd5b7f4e487b7100000000000000000000000000000000000000000000000000000000600052604160045260246000fd5b600080fd5b600080fd5b600080fd5b600080fd5b6000601f19601f8301169050919050565b7f4d6178203220746f6b656e73207065722077616c6c6574000000000000000000600082015250565b7f416c72656164792052657665616c65642e000000000000000000000000000000600082015250565b7f4552433732313a207472616e7366657220746f206e6f6e20455243373231526560008201527f63656976657220696d706c656d656e7465720000000000000000000000000000602082015250565b7f4f776e61626c653a206e6577206f776e657220697320746865207a65726f206160008201527f6464726573730000000000000000000000000000000000000000000000000000602082015250565b7f4552433732313a20746f6b656e20616c7265616479206d696e74656400000000600082015250565b7f4e6f2062616c616e636500000000000000000000000000000000000000000000600082015250565b7f4552433732313a207472616e7366657220746f20746865207a65726f2061646460008201527f7265737300000000000000000000000000000000000000000000000000000000602082015250565b7f4552433732313a20617070726f766520746f2063616c6c657200000000000000600082015250565b7f4552433732313a206f70657261746f7220717565727920666f72206e6f6e657860008201527f697374656e7420746f6b656e0000000000000000000000000000000000000000602082015250565b7f4552433732313a20617070726f76652063616c6c6572206973206e6f74206f7760008201527f6e6572206e6f7220617070726f76656420666f7220616c6c0000000000000000602082015250565b7f4552433732313a2062616c616e636520717565727920666f7220746865207a6560008201527f726f206164647265737300000000000000000000000000000000000000000000602082015250565b7f4552433732313a206f776e657220717565727920666f72206e6f6e657869737460008201527f656e7420746f6b656e0000000000000000000000000000000000000000000000602082015250565b7f53616c657320617265206f666600000000000000000000000000000000000000600082015250565b7f4e756d626572206f662072657175657374656420746f6b656e732077696c6c2060008201527f65786365656420636f6c6c656374696f6e2073697a6500000000000000000000602082015250565b7f4552433732313a206d696e7420746f20746865207a65726f2061646472657373600082015250565b7f45746865722076616c75652073656e74206973206e6f7420737566666963696560008201527f6e74000000000000000000000000000000000000000000000000000000000000602082015250565b7f4552433732313a20617070726f76656420717565727920666f72206e6f6e657860008201527f697374656e7420746f6b656e0000000000000000000000000000000000000000602082015250565b7f2e6a736f6e000000000000000000000000000000000000000000000000000000600082015250565b7f4f776e61626c653a2063616c6c6572206973206e6f7420746865206f776e6572600082015250565b7f4552433732313a207472616e73666572206f6620746f6b656e2074686174206960008201527f73206e6f74206f776e0000000000000000000000000000000000000000000000602082015250565b7f4552433732314d657461646174613a2055524920717565727920666f72206e6f60008201527f6e6578697374656e7420746f6b656e0000000000000000000000000000000000602082015250565b7f4552433732313a20617070726f76616c20746f2063757272656e74206f776e6560008201527f7200000000000000000000000000000000000000000000000000000000000000602082015250565b7f4552433732313a207472616e736665722063616c6c6572206973206e6f74206f60008201527f776e6572206e6f7220617070726f766564000000000000000000000000000000602082015250565b60028110613abe57613abd613409565b5b50565b613aca816131f3565b8114613ad557600080fd5b50565b613ae181613205565b8114613aec57600080fd5b50565b613af881613211565b8114613b0357600080fd5b50565b60028110613b1357600080fd5b50565b613b1f81613270565b8114613b2a57600080fd5b5056fea26469706673582212203b99e4f2afaeb601216330b062a064f376f37667ceb4c243022aefe1e1946fbf64736f6c63430008070033",
  "linkReferences": {},
  "deployedLinkReferences": {}
}