{
  "_format": "hh-sol-artifact-1",
  "contractName": "Twinz",
  "sourceName": "contracts/Twinz.sol",
  "abi": [
    {
      "inputs": [
        {
          "internalType": "uint256",
          "name": "price_",
          "type": "uint256"
        },
        {
          "internalType": "bytes32",
          "name": "whitelistMerkleRoot",
          "type": "bytes32"
        },
        {
          "internalType": "string",
          "name": "name",
          "type": "string"
        },
        {
          "internalType": "string",
          "name": "symbol",
          "type": "string"
        },
        {
          "internalType": "string",
          "name": "baseUri",
          "type": "string"
        }
      ],
      "stateMutability": "nonpayable",
      "type": "constructor"
    },
    {
      "inputs": [],
      "name": "ApprovalCallerNotOwnerNorApproved",
      "type": "error"
    },
    {
      "inputs": [],
      "name": "ApprovalQueryForNonexistentToken",
      "type": "error"
    },
    {
      "inputs": [],
      "name": "ApprovalToCurrentOwner",
      "type": "error"
    },
    {
      "inputs": [],
      "name": "ApproveToCaller",
      "type": "error"
    },
    {
      "inputs": [],
      "name": "BalanceQueryForZeroAddress",
      "type": "error"
    },
    {
      "inputs": [],
      "name": "MintToZeroAddress",
      "type": "error"
    },
    {
      "inputs": [],
      "name": "MintZeroQuantity",
      "type": "error"
    },
    {
      "inputs": [],
      "name": "OwnerQueryForNonexistentToken",
      "type": "error"
    },
    {
      "inputs": [],
      "name": "TransferCallerNotOwnerNorApproved",
      "type": "error"
    },
    {
      "inputs": [],
      "name": "TransferFromIncorrectOwner",
      "type": "error"
    },
    {
      "inputs": [],
      "name": "TransferToNonERC721ReceiverImplementer",
      "type": "error"
    },
    {
      "inputs": [],
      "name": "TransferToZeroAddress",
      "type": "error"
    },
    {
      "inputs": [],
      "name": "URIQueryForNonexistentToken",
      "type": "error"
    },
    {
      "anonymous": false,
      "inputs": [
        {
          "indexed": true,
          "internalType": "address",
          "name": "owner",
          "type": "address"
        },
        {
          "indexed": true,
          "internalType": "address",
          "name": "approved",
          "type": "address"
        },
        {
          "indexed": true,
          "internalType": "uint256",
          "name": "tokenId",
          "type": "uint256"
        }
      ],
      "name": "Approval",
      "type": "event"
    },
    {
      "anonymous": false,
      "inputs": [
        {
          "indexed": true,
          "internalType": "address",
          "name": "owner",
          "type": "address"
        },
        {
          "indexed": true,
          "internalType": "address",
          "name": "operator",
          "type": "address"
        },
        {
          "indexed": false,
          "internalType": "bool",
          "name": "approved",
          "type": "bool"
        }
      ],
      "name": "ApprovalForAll",
      "type": "event"
    },
    {
      "anonymous": false,
      "inputs": [
        {
          "indexed": true,
          "internalType": "address",
          "name": "previousOwner",
          "type": "address"
        },
        {
          "indexed": true,
          "internalType": "address",
          "name": "newOwner",
          "type": "address"
        }
      ],
      "name": "OwnershipTransferred",
      "type": "event"
    },
    {
      "anonymous": false,
      "inputs": [
        {
          "indexed": true,
          "internalType": "address",
          "name": "from",
          "type": "address"
        },
        {
          "indexed": true,
          "internalType": "address",
          "name": "to",
          "type": "address"
        },
        {
          "indexed": true,
          "internalType": "uint256",
          "name": "tokenId",
          "type": "uint256"
        }
      ],
      "name": "Transfer",
      "type": "event"
    },
    {
      "inputs": [
        {
          "internalType": "address",
          "name": "to",
          "type": "address"
        },
        {
          "internalType": "uint256",
          "name": "tokenId",
          "type": "uint256"
        }
      ],
      "name": "approve",
      "outputs": [],
      "stateMutability": "nonpayable",
      "type": "function"
    },
    {
      "inputs": [
        {
          "internalType": "address",
          "name": "owner",
          "type": "address"
        }
      ],
      "name": "balanceOf",
      "outputs": [
        {
          "internalType": "uint256",
          "name": "",
          "type": "uint256"
        }
      ],
      "stateMutability": "view",
      "type": "function"
    },
    {
      "inputs": [
        {
          "internalType": "uint256",
          "name": "tokenId",
          "type": "uint256"
        }
      ],
      "name": "getApproved",
      "outputs": [
        {
          "internalType": "address",
          "name": "",
          "type": "address"
        }
      ],
      "stateMutability": "view",
      "type": "function"
    },
    {
      "inputs": [
        {
          "internalType": "address",
          "name": "owner",
          "type": "address"
        },
        {
          "internalType": "address",
          "name": "operator",
          "type": "address"
        }
      ],
      "name": "isApprovedForAll",
      "outputs": [
        {
          "internalType": "bool",
          "name": "",
          "type": "bool"
        }
      ],
      "stateMutability": "view",
      "type": "function"
    },
    {
      "inputs": [],
      "name": "name",
      "outputs": [
        {
          "internalType": "string",
          "name": "",
          "type": "string"
        }
      ],
      "stateMutability": "view",
      "type": "function"
    },
    {
      "inputs": [],
      "name": "owner",
      "outputs": [
        {
          "internalType": "address",
          "name": "",
          "type": "address"
        }
      ],
      "stateMutability": "view",
      "type": "function"
    },
    {
      "inputs": [
        {
          "internalType": "uint256",
          "name": "tokenId",
          "type": "uint256"
        }
      ],
      "name": "ownerOf",
      "outputs": [
        {
          "internalType": "address",
          "name": "",
          "type": "address"
        }
      ],
      "stateMutability": "view",
      "type": "function"
    },
    {
      "inputs": [],
      "name": "price",
      "outputs": [
        {
          "internalType": "uint256",
          "name": "",
          "type": "uint256"
        }
      ],
      "stateMutability": "view",
      "type": "function"
    },
    {
      "inputs": [],
      "name": "renounceOwnership",
      "outputs": [],
      "stateMutability": "nonpayable",
      "type": "function"
    },
    {
      "inputs": [
        {
          "internalType": "address",
          "name": "from",
          "type": "address"
        },
        {
          "internalType": "address",
          "name": "to",
          "type": "address"
        },
        {
          "internalType": "uint256",
          "name": "tokenId",
          "type": "uint256"
        }
      ],
      "name": "safeTransferFrom",
      "outputs": [],
      "stateMutability": "nonpayable",
      "type": "function"
    },
    {
      "inputs": [
        {
          "internalType": "address",
          "name": "from",
          "type": "address"
        },
        {
          "internalType": "address",
          "name": "to",
          "type": "address"
        },
        {
          "internalType": "uint256",
          "name": "tokenId",
          "type": "uint256"
        },
        {
          "internalType": "bytes",
          "name": "_data",
          "type": "bytes"
        }
      ],
      "name": "safeTransferFrom",
      "outputs": [],
      "stateMutability": "nonpayable",
      "type": "function"
    },
    {
      "inputs": [
        {
          "internalType": "address",
          "name": "operator",
          "type": "address"
        },
        {
          "internalType": "bool",
          "name": "approved",
          "type": "bool"
        }
      ],
      "name": "setApprovalForAll",
      "outputs": [],
      "stateMutability": "nonpayable",
      "type": "function"
    },
    {
      "inputs": [
        {
          "internalType": "string",
          "name": "baseUri",
          "type": "string"
        }
      ],
      "name": "setBaseURI",
      "outputs": [],
      "stateMutability": "nonpayable",
      "type": "function"
    },
    {
      "inputs": [
        {
          "internalType": "bytes32",
          "name": "whitelistMerkleRoot",
          "type": "bytes32"
        }
      ],
      "name": "setMerkleRoot",
      "outputs": [],
      "stateMutability": "nonpayable",
      "type": "function"
    },
    {
      "inputs": [
        {
          "internalType": "uint256",
          "name": "price_",
          "type": "uint256"
        }
      ],
      "name": "setPrice",
      "outputs": [],
      "stateMutability": "nonpayable",
      "type": "function"
    },
    {
      "inputs": [
        {
          "internalType": "bytes4",
          "name": "interfaceId",
          "type": "bytes4"
        }
      ],
      "name": "supportsInterface",
      "outputs": [
        {
          "internalType": "bool",
          "name": "",
          "type": "bool"
        }
      ],
      "stateMutability": "view",
      "type": "function"
    },
    {
      "inputs": [],
      "name": "symbol",
      "outputs": [
        {
          "internalType": "string",
          "name": "",
          "type": "string"
        }
      ],
      "stateMutability": "view",
      "type": "function"
    },
    {
      "inputs": [
        {
          "internalType": "uint256",
          "name": "tokenId",
          "type": "uint256"
        }
      ],
      "name": "tokenURI",
      "outputs": [
        {
          "internalType": "string",
          "name": "",
          "type": "string"
        }
      ],
      "stateMutability": "view",
      "type": "function"
    },
    {
      "inputs": [],
      "name": "totalSupply",
      "outputs": [
        {
          "internalType": "uint256",
          "name": "",
          "type": "uint256"
        }
      ],
      "stateMutability": "view",
      "type": "function"
    },
    {
      "inputs": [
        {
          "internalType": "address",
          "name": "from",
          "type": "address"
        },
        {
          "internalType": "address",
          "name": "to",
          "type": "address"
        },
        {
          "internalType": "uint256",
          "name": "tokenId",
          "type": "uint256"
        }
      ],
      "name": "transferFrom",
      "outputs": [],
      "stateMutability": "nonpayable",
      "type": "function"
    },
    {
      "inputs": [
        {
          "internalType": "address",
          "name": "newOwner",
          "type": "address"
        }
      ],
      "name": "transferOwnership",
      "outputs": [],
      "stateMutability": "nonpayable",
      "type": "function"
    },
    {
      "inputs": [
        {
          "internalType": "bytes32[]",
          "name": "_merkleProof",
          "type": "bytes32[]"
        },
        {
          "internalType": "uint256",
          "name": "amount",
          "type": "uint256"
        }
      ],
      "name": "whitelistMint",
      "outputs": [],
      "stateMutability": "payable",
      "type": "function"
    },
    {
      "inputs": [
        {
          "internalType": "address payable",
          "name": "to",
          "type": "address"
        }
      ],
      "name": "withdrawBalance",
      "outputs": [],
      "stateMutability": "nonpayable",
      "type": "function"
    },
    {
      "stateMutability": "payable",
      "type": "receive"
    }
  ],
  "bytecode": "0x60806040523480156200001157600080fd5b5060405162003a5c38038062003a5c833981810160405281019062000037919062000450565b82828160029080519060200190620000519291906200018d565b5080600390805190602001906200006a9291906200018d565b5050506200008d62000081620000bf60201b60201c565b620000c760201b60201c565b83600b8190555080600a9080519060200190620000ac9291906200018d565b5084600981905550505050505062000599565b600033905090565b6000600860009054906101000a900473ffffffffffffffffffffffffffffffffffffffff16905081600860006101000a81548173ffffffffffffffffffffffffffffffffffffffff021916908373ffffffffffffffffffffffffffffffffffffffff1602179055508173ffffffffffffffffffffffffffffffffffffffff168173ffffffffffffffffffffffffffffffffffffffff167f8be0079c531659141344cd1fd0a4f28419497f9722a3daafe3b4186f6b6457e060405160405180910390a35050565b8280546200019b9062000564565b90600052602060002090601f016020900481019282620001bf57600085556200020b565b82601f10620001da57805160ff19168380011785556200020b565b828001600101855582156200020b579182015b828111156200020a578251825591602001919060010190620001ed565b5b5090506200021a91906200021e565b5090565b5b80821115620002395760008160009055506001016200021f565b5090565b6000604051905090565b600080fd5b600080fd5b6000819050919050565b620002668162000251565b81146200027257600080fd5b50565b60008151905062000286816200025b565b92915050565b6000819050919050565b620002a1816200028c565b8114620002ad57600080fd5b50565b600081519050620002c18162000296565b92915050565b600080fd5b600080fd5b6000601f19601f8301169050919050565b7f4e487b7100000000000000000000000000000000000000000000000000000000600052604160045260246000fd5b6200031c82620002d1565b810181811067ffffffffffffffff821117156200033e576200033d620002e2565b5b80604052505050565b6000620003536200023d565b905062000361828262000311565b919050565b600067ffffffffffffffff821115620003845762000383620002e2565b5b6200038f82620002d1565b9050602081019050919050565b60005b83811015620003bc5780820151818401526020810190506200039f565b83811115620003cc576000848401525b50505050565b6000620003e9620003e38462000366565b62000347565b905082815260208101848484011115620004085762000407620002cc565b5b620004158482856200039c565b509392505050565b600082601f830112620004355762000434620002c7565b5b815162000447848260208601620003d2565b91505092915050565b600080600080600060a086880312156200046f576200046e62000247565b5b60006200047f8882890162000275565b95505060206200049288828901620002b0565b945050604086015167ffffffffffffffff811115620004b657620004b56200024c565b5b620004c4888289016200041d565b935050606086015167ffffffffffffffff811115620004e857620004e76200024c565b5b620004f6888289016200041d565b925050608086015167ffffffffffffffff8111156200051a57620005196200024c565b5b62000528888289016200041d565b9150509295509295909350565b7f4e487b7100000000000000000000000000000000000000000000000000000000600052602260045260246000fd5b600060028204905060018216806200057d57607f821691505b60208210810362000593576200059262000535565b5b50919050565b6134b380620005a96000396000f3fe6080604052600436106101445760003560e01c8063715018a6116100b6578063a035b1fe1161006f578063a035b1fe14610442578063a22cb4651461046d578063b88d4fde14610496578063c87b56dd146104bf578063e985e9c5146104fc578063f2fde38b146105395761014b565b8063715018a61461035a578063756af45f146103715780637cb647591461039a5780638da5cb5b146103c357806391b7f5ed146103ee57806395d89b41146104175761014b565b806323b872dd1161010857806323b872dd146102495780632904e6d91461027257806342842e0e1461028e57806355f804b3146102b75780636352211e146102e057806370a082311461031d5761014b565b806301ffc9a71461015057806306fdde031461018d578063081812fc146101b8578063095ea7b3146101f557806318160ddd1461021e5761014b565b3661014b57005b600080fd5b34801561015c57600080fd5b50610177600480360381019061017291906125a7565b610562565b60405161018491906125ef565b60405180910390f35b34801561019957600080fd5b506101a2610574565b6040516101af91906126a3565b60405180910390f35b3480156101c457600080fd5b506101df60048036038101906101da91906126fb565b610606565b6040516101ec9190612769565b60405180910390f35b34801561020157600080fd5b5061021c600480360381019061021791906127b0565b610682565b005b34801561022a57600080fd5b5061023361078c565b60405161024091906127ff565b60405180910390f35b34801561025557600080fd5b50610270600480360381019061026b919061281a565b61079a565b005b61028c600480360381019061028791906128d2565b6107aa565b005b34801561029a57600080fd5b506102b560048036038101906102b0919061281a565b6108b5565b005b3480156102c357600080fd5b506102de60048036038101906102d99190612a62565b610916565b005b3480156102ec57600080fd5b50610307600480360381019061030291906126fb565b6109ac565b6040516103149190612769565b60405180910390f35b34801561032957600080fd5b50610344600480360381019061033f9190612aab565b6109c2565b60405161035191906127ff565b60405180910390f35b34801561036657600080fd5b5061036f610a91565b005b34801561037d57600080fd5b5061039860048036038101906103939190612b16565b610b19565b005b3480156103a657600080fd5b506103c160048036038101906103bc9190612b79565b610bdf565b005b3480156103cf57600080fd5b506103d8610c65565b6040516103e59190612769565b60405180910390f35b3480156103fa57600080fd5b50610415600480360381019061041091906126fb565b610c8f565b005b34801561042357600080fd5b5061042c610d15565b60405161043991906126a3565b60405180910390f35b34801561044e57600080fd5b50610457610da7565b60405161046491906127ff565b60405180910390f35b34801561047957600080fd5b50610494600480360381019061048f9190612bd2565b610dad565b005b3480156104a257600080fd5b506104bd60048036038101906104b89190612cb3565b610f24565b005b3480156104cb57600080fd5b506104e660048036038101906104e191906126fb565b610f77565b6040516104f391906126a3565b60405180910390f35b34801561050857600080fd5b50610523600480360381019061051e9190612d36565b611015565b60405161053091906125ef565b60405180910390f35b34801561054557600080fd5b50610560600480360381019061055b9190612aab565b6110a9565b005b600061056d826111a0565b9050919050565b60606002805461058390612da5565b80601f01602080910402602001604051908101604052809291908181526020018280546105af90612da5565b80156105fc5780601f106105d1576101008083540402835291602001916105fc565b820191906000526020600020905b8154815290600101906020018083116105df57829003601f168201915b5050505050905090565b600061061182611282565b610647576040517fcf4700e400000000000000000000000000000000000000000000000000000000815260040160405180910390fd5b6006600083815260200190815260200160002060009054906101000a900473ffffffffffffffffffffffffffffffffffffffff169050919050565b600061068d826109ac565b90508073ffffffffffffffffffffffffffffffffffffffff168373ffffffffffffffffffffffffffffffffffffffff16036106f4576040517f943f7b8c00000000000000000000000000000000000000000000000000000000815260040160405180910390fd5b8073ffffffffffffffffffffffffffffffffffffffff166107136112bc565b73ffffffffffffffffffffffffffffffffffffffff161415801561074557506107438161073e6112bc565b611015565b155b1561077c576040517fcfb3b94200000000000000000000000000000000000000000000000000000000815260040160405180910390fd5b6107878383836112c4565b505050565b600060015460005403905090565b6107a5838383611376565b505050565b806009546107b89190612e05565b34146107f9576040517f08c379a00000000000000000000000000000000000000000000000000000000081526004016107f090612eab565b60405180910390fd5b60648161080461078c565b61080e9190612ecb565b111561084f576040517f08c379a000000000000000000000000000000000000000000000000000000000815260040161084690612f6d565b60405180910390fd5b60006108596112bc565b9050610866848483611865565b6108a5576040517f08c379a000000000000000000000000000000000000000000000000000000000815260040161089c90612fd9565b60405180910390fd5b6108af81836118eb565b50505050565b6108c0838383611376565b6108db83838360405180602001604052806000815250611909565b610911576040517fd1a57ed600000000000000000000000000000000000000000000000000000000815260040160405180910390fd5b505050565b61091e6112bc565b73ffffffffffffffffffffffffffffffffffffffff1661093c610c65565b73ffffffffffffffffffffffffffffffffffffffff1614610992576040517f08c379a000000000000000000000000000000000000000000000000000000000815260040161098990613045565b60405180910390fd5b80600a90805190602001906109a8929190612455565b5050565b60006109b782611a87565b600001519050919050565b60008073ffffffffffffffffffffffffffffffffffffffff168273ffffffffffffffffffffffffffffffffffffffff1603610a29576040517f8f4eb60400000000000000000000000000000000000000000000000000000000815260040160405180910390fd5b600560008373ffffffffffffffffffffffffffffffffffffffff1673ffffffffffffffffffffffffffffffffffffffff16815260200190815260200160002060000160009054906101000a900467ffffffffffffffff1667ffffffffffffffff169050919050565b610a996112bc565b73ffffffffffffffffffffffffffffffffffffffff16610ab7610c65565b73ffffffffffffffffffffffffffffffffffffffff1614610b0d576040517f08c379a0000000000000000000000000000000000000000000000000000000008152600401610b0490613045565b60405180910390fd5b610b176000611d03565b565b610b216112bc565b73ffffffffffffffffffffffffffffffffffffffff16610b3f610c65565b73ffffffffffffffffffffffffffffffffffffffff1614610b95576040517f08c379a0000000000000000000000000000000000000000000000000000000008152600401610b8c90613045565b60405180910390fd5b8073ffffffffffffffffffffffffffffffffffffffff166108fc479081150290604051600060405180830381858888f19350505050158015610bdb573d6000803e3d6000fd5b5050565b610be76112bc565b73ffffffffffffffffffffffffffffffffffffffff16610c05610c65565b73ffffffffffffffffffffffffffffffffffffffff1614610c5b576040517f08c379a0000000000000000000000000000000000000000000000000000000008152600401610c5290613045565b60405180910390fd5b80600b8190555050565b6000600860009054906101000a900473ffffffffffffffffffffffffffffffffffffffff16905090565b610c976112bc565b73ffffffffffffffffffffffffffffffffffffffff16610cb5610c65565b73ffffffffffffffffffffffffffffffffffffffff1614610d0b576040517f08c379a0000000000000000000000000000000000000000000000000000000008152600401610d0290613045565b60405180910390fd5b8060098190555050565b606060038054610d2490612da5565b80601f0160208091040260200160405190810160405280929190818152602001828054610d5090612da5565b8015610d9d5780601f10610d7257610100808354040283529160200191610d9d565b820191906000526020600020905b815481529060010190602001808311610d8057829003601f168201915b5050505050905090565b60095481565b610db56112bc565b73ffffffffffffffffffffffffffffffffffffffff168273ffffffffffffffffffffffffffffffffffffffff1603610e19576040517fb06307db00000000000000000000000000000000000000000000000000000000815260040160405180910390fd5b8060076000610e266112bc565b73ffffffffffffffffffffffffffffffffffffffff1673ffffffffffffffffffffffffffffffffffffffff16815260200190815260200160002060008473ffffffffffffffffffffffffffffffffffffffff1673ffffffffffffffffffffffffffffffffffffffff16815260200190815260200160002060006101000a81548160ff0219169083151502179055508173ffffffffffffffffffffffffffffffffffffffff16610ed36112bc565b73ffffffffffffffffffffffffffffffffffffffff167f17307eab39ab6107e8899845ad3d59bd9653f200f220920489ca2b5937696c3183604051610f1891906125ef565b60405180910390a35050565b610f2f848484611376565b610f3b84848484611909565b610f71576040517fd1a57ed600000000000000000000000000000000000000000000000000000000815260040160405180910390fd5b50505050565b6060610f8282611282565b610fb8576040517fa14c4b5000000000000000000000000000000000000000000000000000000000815260040160405180910390fd5b6000610fc2611dc9565b90506000815103610fe2576040518060200160405280600081525061100d565b80610fec84611e5b565b604051602001610ffd9291906130ed565b6040516020818303038152906040525b915050919050565b6000600760008473ffffffffffffffffffffffffffffffffffffffff1673ffffffffffffffffffffffffffffffffffffffff16815260200190815260200160002060008373ffffffffffffffffffffffffffffffffffffffff1673ffffffffffffffffffffffffffffffffffffffff16815260200190815260200160002060009054906101000a900460ff16905092915050565b6110b16112bc565b73ffffffffffffffffffffffffffffffffffffffff166110cf610c65565b73ffffffffffffffffffffffffffffffffffffffff1614611125576040517f08c379a000000000000000000000000000000000000000000000000000000000815260040161111c90613045565b60405180910390fd5b600073ffffffffffffffffffffffffffffffffffffffff168173ffffffffffffffffffffffffffffffffffffffff1603611194576040517f08c379a000000000000000000000000000000000000000000000000000000000815260040161118b9061318e565b60405180910390fd5b61119d81611d03565b50565b60007f80ac58cd000000000000000000000000000000000000000000000000000000007bffffffffffffffffffffffffffffffffffffffffffffffffffffffff1916827bffffffffffffffffffffffffffffffffffffffffffffffffffffffff1916148061126b57507f5b5e139f000000000000000000000000000000000000000000000000000000007bffffffffffffffffffffffffffffffffffffffffffffffffffffffff1916827bffffffffffffffffffffffffffffffffffffffffffffffffffffffff1916145b8061127b575061127a82611fbb565b5b9050919050565b60008054821080156112b5575060046000838152602001908152602001600020600001601c9054906101000a900460ff16155b9050919050565b600033905090565b826006600084815260200190815260200160002060006101000a81548173ffffffffffffffffffffffffffffffffffffffff021916908373ffffffffffffffffffffffffffffffffffffffff160217905550818373ffffffffffffffffffffffffffffffffffffffff168273ffffffffffffffffffffffffffffffffffffffff167f8c5be1e5ebec7d5bd14f71427d1e84f3dd0314c0f7b2291e5b200ac8c7c3b92560405160405180910390a4505050565b600061138182611a87565b90506000816000015173ffffffffffffffffffffffffffffffffffffffff166113a86112bc565b73ffffffffffffffffffffffffffffffffffffffff1614806113db57506113da82600001516113d56112bc565b611015565b5b8061142057506113e96112bc565b73ffffffffffffffffffffffffffffffffffffffff1661140884610606565b73ffffffffffffffffffffffffffffffffffffffff16145b905080611459576040517f59c896be00000000000000000000000000000000000000000000000000000000815260040160405180910390fd5b8473ffffffffffffffffffffffffffffffffffffffff16826000015173ffffffffffffffffffffffffffffffffffffffff16146114c2576040517fa114810000000000000000000000000000000000000000000000000000000000815260040160405180910390fd5b600073ffffffffffffffffffffffffffffffffffffffff168473ffffffffffffffffffffffffffffffffffffffff1603611528576040517fea553b3400000000000000000000000000000000000000000000000000000000815260040160405180910390fd5b6115358585856001612025565b61154560008484600001516112c4565b6001600560008773ffffffffffffffffffffffffffffffffffffffff1673ffffffffffffffffffffffffffffffffffffffff16815260200190815260200160002060000160008282829054906101000a900467ffffffffffffffff160392506101000a81548167ffffffffffffffff021916908367ffffffffffffffff1602179055506001600560008673ffffffffffffffffffffffffffffffffffffffff1673ffffffffffffffffffffffffffffffffffffffff16815260200190815260200160002060000160008282829054906101000a900467ffffffffffffffff160192506101000a81548167ffffffffffffffff021916908367ffffffffffffffff160217905550836004600085815260200190815260200160002060000160006101000a81548173ffffffffffffffffffffffffffffffffffffffff021916908373ffffffffffffffffffffffffffffffffffffffff160217905550426004600085815260200190815260200160002060000160146101000a81548167ffffffffffffffff021916908367ffffffffffffffff1602179055506000600184019050600073ffffffffffffffffffffffffffffffffffffffff166004600083815260200190815260200160002060000160009054906101000a900473ffffffffffffffffffffffffffffffffffffffff1673ffffffffffffffffffffffffffffffffffffffff16036117f5576000548110156117f45782600001516004600083815260200190815260200160002060000160006101000a81548173ffffffffffffffffffffffffffffffffffffffff021916908373ffffffffffffffffffffffffffffffffffffffff16021790555082602001516004600083815260200190815260200160002060000160146101000a81548167ffffffffffffffff021916908367ffffffffffffffff1602179055505b5b50828473ffffffffffffffffffffffffffffffffffffffff168673ffffffffffffffffffffffffffffffffffffffff167fddf252ad1be2c89b69c2b068fc378daa952ba7f163c4a11628f55a4df523b3ef60405160405180910390a461185e858585600161202b565b5050505050565b6000600115156118df858580806020026020016040519081016040528093929190818152602001838360200280828437600081840152601f19601f82011690508083019250505050505050600b54856040516020016118c491906131f6565b60405160208183030381529060405280519060200120612031565b15151490509392505050565b611905828260405180602001604052806000815250612048565b5050565b600061192a8473ffffffffffffffffffffffffffffffffffffffff1661205a565b15611a7a578373ffffffffffffffffffffffffffffffffffffffff1663150b7a026119536112bc565b8786866040518563ffffffff1660e01b81526004016119759493929190613266565b6020604051808303816000875af19250505080156119b157506040513d601f19601f820116820180604052508101906119ae91906132c7565b60015b611a2a573d80600081146119e1576040519150601f19603f3d011682016040523d82523d6000602084013e6119e6565b606091505b506000815103611a22576040517fd1a57ed600000000000000000000000000000000000000000000000000000000815260040160405180910390fd5b805181602001fd5b63150b7a0260e01b7bffffffffffffffffffffffffffffffffffffffffffffffffffffffff1916817bffffffffffffffffffffffffffffffffffffffffffffffffffffffff191614915050611a7f565b600190505b949350505050565b611a8f6124db565b6000829050600054811015611ccc576000600460008381526020019081526020016000206040518060600160405290816000820160009054906101000a900473ffffffffffffffffffffffffffffffffffffffff1673ffffffffffffffffffffffffffffffffffffffff1673ffffffffffffffffffffffffffffffffffffffff1681526020016000820160149054906101000a900467ffffffffffffffff1667ffffffffffffffff1667ffffffffffffffff16815260200160008201601c9054906101000a900460ff16151515158152505090508060400151611cca57600073ffffffffffffffffffffffffffffffffffffffff16816000015173ffffffffffffffffffffffffffffffffffffffff1614611bae578092505050611cfe565b5b600115611cc957818060019003925050600460008381526020019081526020016000206040518060600160405290816000820160009054906101000a900473ffffffffffffffffffffffffffffffffffffffff1673ffffffffffffffffffffffffffffffffffffffff1673ffffffffffffffffffffffffffffffffffffffff1681526020016000820160149054906101000a900467ffffffffffffffff1667ffffffffffffffff1667ffffffffffffffff16815260200160008201601c9054906101000a900460ff1615151515815250509050600073ffffffffffffffffffffffffffffffffffffffff16816000015173ffffffffffffffffffffffffffffffffffffffff1614611cc4578092505050611cfe565b611baf565b5b505b6040517fdf2d9b4200000000000000000000000000000000000000000000000000000000815260040160405180910390fd5b919050565b6000600860009054906101000a900473ffffffffffffffffffffffffffffffffffffffff16905081600860006101000a81548173ffffffffffffffffffffffffffffffffffffffff021916908373ffffffffffffffffffffffffffffffffffffffff1602179055508173ffffffffffffffffffffffffffffffffffffffff168173ffffffffffffffffffffffffffffffffffffffff167f8be0079c531659141344cd1fd0a4f28419497f9722a3daafe3b4186f6b6457e060405160405180910390a35050565b6060600a8054611dd890612da5565b80601f0160208091040260200160405190810160405280929190818152602001828054611e0490612da5565b8015611e515780601f10611e2657610100808354040283529160200191611e51565b820191906000526020600020905b815481529060010190602001808311611e3457829003601f168201915b5050505050905090565b606060008203611ea2576040518060400160405280600181526020017f30000000000000000000000000000000000000000000000000000000000000008152509050611fb6565b600082905060005b60008214611ed4578080611ebd906132f4565b915050600a82611ecd919061336b565b9150611eaa565b60008167ffffffffffffffff811115611ef057611eef612937565b5b6040519080825280601f01601f191660200182016040528015611f225781602001600182028036833780820191505090505b5090505b60008514611faf57600182611f3b919061339c565b9150600a85611f4a91906133d0565b6030611f569190612ecb565b60f81b818381518110611f6c57611f6b613401565b5b60200101907effffffffffffffffffffffffffffffffffffffffffffffffffffffffffffff1916908160001a905350600a85611fa8919061336b565b9450611f26565b8093505050505b919050565b60007f01ffc9a7000000000000000000000000000000000000000000000000000000007bffffffffffffffffffffffffffffffffffffffffffffffffffffffff1916827bffffffffffffffffffffffffffffffffffffffffffffffffffffffff1916149050919050565b50505050565b50505050565b60008261203e858461206d565b1490509392505050565b6120558383836001612120565b505050565b600080823b905060008111915050919050565b60008082905060005b845181101561211557600085828151811061209457612093613401565b5b602002602001015190508083116120d55782816040516020016120b8929190613451565b604051602081830303815290604052805190602001209250612101565b80836040516020016120e8929190613451565b6040516020818303038152906040528051906020012092505b50808061210d906132f4565b915050612076565b508091505092915050565b600080549050600073ffffffffffffffffffffffffffffffffffffffff168573ffffffffffffffffffffffffffffffffffffffff160361218c576040517f2e07630000000000000000000000000000000000000000000000000000000000815260040160405180910390fd5b600084036121c6576040517fb562e8dd00000000000000000000000000000000000000000000000000000000815260040160405180910390fd5b6121d36000868387612025565b83600560008773ffffffffffffffffffffffffffffffffffffffff1673ffffffffffffffffffffffffffffffffffffffff16815260200190815260200160002060000160008282829054906101000a900467ffffffffffffffff160192506101000a81548167ffffffffffffffff021916908367ffffffffffffffff16021790555083600560008773ffffffffffffffffffffffffffffffffffffffff1673ffffffffffffffffffffffffffffffffffffffff16815260200190815260200160002060000160088282829054906101000a900467ffffffffffffffff160192506101000a81548167ffffffffffffffff021916908367ffffffffffffffff160217905550846004600083815260200190815260200160002060000160006101000a81548173ffffffffffffffffffffffffffffffffffffffff021916908373ffffffffffffffffffffffffffffffffffffffff160217905550426004600083815260200190815260200160002060000160146101000a81548167ffffffffffffffff021916908367ffffffffffffffff160217905550600081905060005b8581101561243857818773ffffffffffffffffffffffffffffffffffffffff16600073ffffffffffffffffffffffffffffffffffffffff167fddf252ad1be2c89b69c2b068fc378daa952ba7f163c4a11628f55a4df523b3ef60405160405180910390a48380156123ec57506123ea6000888488611909565b155b15612423576040517fd1a57ed600000000000000000000000000000000000000000000000000000000815260040160405180910390fd5b81806001019250508080600101915050612371565b50806000819055505061244e600086838761202b565b5050505050565b82805461246190612da5565b90600052602060002090601f01602090048101928261248357600085556124ca565b82601f1061249c57805160ff19168380011785556124ca565b828001600101855582156124ca579182015b828111156124c95782518255916020019190600101906124ae565b5b5090506124d7919061251e565b5090565b6040518060600160405280600073ffffffffffffffffffffffffffffffffffffffff168152602001600067ffffffffffffffff1681526020016000151581525090565b5b8082111561253757600081600090555060010161251f565b5090565b6000604051905090565b600080fd5b600080fd5b60007fffffffff0000000000000000000000000000000000000000000000000000000082169050919050565b6125848161254f565b811461258f57600080fd5b50565b6000813590506125a18161257b565b92915050565b6000602082840312156125bd576125bc612545565b5b60006125cb84828501612592565b91505092915050565b60008115159050919050565b6125e9816125d4565b82525050565b600060208201905061260460008301846125e0565b92915050565b600081519050919050565b600082825260208201905092915050565b60005b83811015612644578082015181840152602081019050612629565b83811115612653576000848401525b50505050565b6000601f19601f8301169050919050565b60006126758261260a565b61267f8185612615565b935061268f818560208601612626565b61269881612659565b840191505092915050565b600060208201905081810360008301526126bd818461266a565b905092915050565b6000819050919050565b6126d8816126c5565b81146126e357600080fd5b50565b6000813590506126f5816126cf565b92915050565b60006020828403121561271157612710612545565b5b600061271f848285016126e6565b91505092915050565b600073ffffffffffffffffffffffffffffffffffffffff82169050919050565b600061275382612728565b9050919050565b61276381612748565b82525050565b600060208201905061277e600083018461275a565b92915050565b61278d81612748565b811461279857600080fd5b50565b6000813590506127aa81612784565b92915050565b600080604083850312156127c7576127c6612545565b5b60006127d58582860161279b565b92505060206127e6858286016126e6565b9150509250929050565b6127f9816126c5565b82525050565b600060208201905061281460008301846127f0565b92915050565b60008060006060848603121561283357612832612545565b5b60006128418682870161279b565b93505060206128528682870161279b565b9250506040612863868287016126e6565b9150509250925092565b600080fd5b600080fd5b600080fd5b60008083601f8401126128925761289161286d565b5b8235905067ffffffffffffffff8111156128af576128ae612872565b5b6020830191508360208202830111156128cb576128ca612877565b5b9250929050565b6000806000604084860312156128eb576128ea612545565b5b600084013567ffffffffffffffff8111156129095761290861254a565b5b6129158682870161287c565b93509350506020612928868287016126e6565b9150509250925092565b600080fd5b7f4e487b7100000000000000000000000000000000000000000000000000000000600052604160045260246000fd5b61296f82612659565b810181811067ffffffffffffffff8211171561298e5761298d612937565b5b80604052505050565b60006129a161253b565b90506129ad8282612966565b919050565b600067ffffffffffffffff8211156129cd576129cc612937565b5b6129d682612659565b9050602081019050919050565b82818337600083830152505050565b6000612a05612a00846129b2565b612997565b905082815260208101848484011115612a2157612a20612932565b5b612a2c8482856129e3565b509392505050565b600082601f830112612a4957612a4861286d565b5b8135612a598482602086016129f2565b91505092915050565b600060208284031215612a7857612a77612545565b5b600082013567ffffffffffffffff811115612a9657612a9561254a565b5b612aa284828501612a34565b91505092915050565b600060208284031215612ac157612ac0612545565b5b6000612acf8482850161279b565b91505092915050565b6000612ae382612728565b9050919050565b612af381612ad8565b8114612afe57600080fd5b50565b600081359050612b1081612aea565b92915050565b600060208284031215612b2c57612b2b612545565b5b6000612b3a84828501612b01565b91505092915050565b6000819050919050565b612b5681612b43565b8114612b6157600080fd5b50565b600081359050612b7381612b4d565b92915050565b600060208284031215612b8f57612b8e612545565b5b6000612b9d84828501612b64565b91505092915050565b612baf816125d4565b8114612bba57600080fd5b50565b600081359050612bcc81612ba6565b92915050565b60008060408385031215612be957612be8612545565b5b6000612bf78582860161279b565b9250506020612c0885828601612bbd565b9150509250929050565b600067ffffffffffffffff821115612c2d57612c2c612937565b5b612c3682612659565b9050602081019050919050565b6000612c56612c5184612c12565b612997565b905082815260208101848484011115612c7257612c71612932565b5b612c7d8482856129e3565b509392505050565b600082601f830112612c9a57612c9961286d565b5b8135612caa848260208601612c43565b91505092915050565b60008060008060808587031215612ccd57612ccc612545565b5b6000612cdb8782880161279b565b9450506020612cec8782880161279b565b9350506040612cfd878288016126e6565b925050606085013567ffffffffffffffff811115612d1e57612d1d61254a565b5b612d2a87828801612c85565b91505092959194509250565b60008060408385031215612d4d57612d4c612545565b5b6000612d5b8582860161279b565b9250506020612d6c8582860161279b565b9150509250929050565b7f4e487b7100000000000000000000000000000000000000000000000000000000600052602260045260246000fd5b60006002820490506001821680612dbd57607f821691505b602082108103612dd057612dcf612d76565b5b50919050565b7f4e487b7100000000000000000000000000000000000000000000000000000000600052601160045260246000fd5b6000612e10826126c5565b9150612e1b836126c5565b9250817fffffffffffffffffffffffffffffffffffffffffffffffffffffffffffffffff0483118215151615612e5457612e53612dd6565b5b828202905092915050565b7f57524f4e475f5052494345000000000000000000000000000000000000000000600082015250565b6000612e95600b83612615565b9150612ea082612e5f565b602082019050919050565b60006020820190508181036000830152612ec481612e88565b9050919050565b6000612ed6826126c5565b9150612ee1836126c5565b9250827fffffffffffffffffffffffffffffffffffffffffffffffffffffffffffffffff03821115612f1657612f15612dd6565b5b828201905092915050565b7f4d41585f535550504c595f524541434845440000000000000000000000000000600082015250565b6000612f57601283612615565b9150612f6282612f21565b602082019050919050565b60006020820190508181036000830152612f8681612f4a565b9050919050565b7f57484954454c4953545f4e4f545f564552494649454400000000000000000000600082015250565b6000612fc3601683612615565b9150612fce82612f8d565b602082019050919050565b60006020820190508181036000830152612ff281612fb6565b9050919050565b7f4f776e61626c653a2063616c6c6572206973206e6f7420746865206f776e6572600082015250565b600061302f602083612615565b915061303a82612ff9565b602082019050919050565b6000602082019050818103600083015261305e81613022565b9050919050565b600081905092915050565b600061307b8261260a565b6130858185613065565b9350613095818560208601612626565b80840191505092915050565b7f2e6a736f6e000000000000000000000000000000000000000000000000000000600082015250565b60006130d7600583613065565b91506130e2826130a1565b600582019050919050565b60006130f98285613070565b91506131058284613070565b9150613110826130ca565b91508190509392505050565b7f4f776e61626c653a206e6577206f776e657220697320746865207a65726f206160008201527f6464726573730000000000000000000000000000000000000000000000000000602082015250565b6000613178602683612615565b91506131838261311c565b604082019050919050565b600060208201905081810360008301526131a78161316b565b9050919050565b60008160601b9050919050565b60006131c6826131ae565b9050919050565b60006131d8826131bb565b9050919050565b6131f06131eb82612748565b6131cd565b82525050565b600061320282846131df565b60148201915081905092915050565b600081519050919050565b600082825260208201905092915050565b600061323882613211565b613242818561321c565b9350613252818560208601612626565b61325b81612659565b840191505092915050565b600060808201905061327b600083018761275a565b613288602083018661275a565b61329560408301856127f0565b81810360608301526132a7818461322d565b905095945050505050565b6000815190506132c18161257b565b92915050565b6000602082840312156132dd576132dc612545565b5b60006132eb848285016132b2565b91505092915050565b60006132ff826126c5565b91507fffffffffffffffffffffffffffffffffffffffffffffffffffffffffffffffff820361333157613330612dd6565b5b600182019050919050565b7f4e487b7100000000000000000000000000000000000000000000000000000000600052601260045260246000fd5b6000613376826126c5565b9150613381836126c5565b9250826133915761339061333c565b5b828204905092915050565b60006133a7826126c5565b91506133b2836126c5565b9250828210156133c5576133c4612dd6565b5b828203905092915050565b60006133db826126c5565b91506133e6836126c5565b9250826133f6576133f561333c565b5b828206905092915050565b7f4e487b7100000000000000000000000000000000000000000000000000000000600052603260045260246000fd5b6000819050919050565b61344b61344682612b43565b613430565b82525050565b600061345d828561343a565b60208201915061346d828461343a565b602082019150819050939250505056fea2646970667358221220b85c714ebb98f1bf186856fe144d4f206fa4d31c50d0c15e830b25dce43ec77764736f6c634300080d0033",
  "linkReferences": {},
  "deployedLinkReferences": {}
}