{
  "_format": "hh-sol-artifact-1",
  "contractName": "Twinz",
  "sourceName": "contracts/Twinz.sol",
  "abi": [
    {
      "inputs": [
        {
          "internalType": "uint256",
          "name": "price_",
          "type": "uint256"
        },
        {
          "internalType": "bytes32",
          "name": "whitelistMerkleRoot",
          "type": "bytes32"
        },
        {
          "internalType": "string",
          "name": "name",
          "type": "string"
        },
        {
          "internalType": "string",
          "name": "symbol",
          "type": "string"
        },
        {
          "internalType": "string",
          "name": "baseUri",
          "type": "string"
        }
      ],
      "stateMutability": "nonpayable",
      "type": "constructor"
    },
    {
      "inputs": [],
      "name": "ApprovalCallerNotOwnerNorApproved",
      "type": "error"
    },
    {
      "inputs": [],
      "name": "ApprovalQueryForNonexistentToken",
      "type": "error"
    },
    {
      "inputs": [],
      "name": "ApprovalToCurrentOwner",
      "type": "error"
    },
    {
      "inputs": [],
      "name": "ApproveToCaller",
      "type": "error"
    },
    {
      "inputs": [],
      "name": "BalanceQueryForZeroAddress",
      "type": "error"
    },
    {
      "inputs": [],
      "name": "MintToZeroAddress",
      "type": "error"
    },
    {
      "inputs": [],
      "name": "MintZeroQuantity",
      "type": "error"
    },
    {
      "inputs": [],
      "name": "OwnerQueryForNonexistentToken",
      "type": "error"
    },
    {
      "inputs": [],
      "name": "TransferCallerNotOwnerNorApproved",
      "type": "error"
    },
    {
      "inputs": [],
      "name": "TransferFromIncorrectOwner",
      "type": "error"
    },
    {
      "inputs": [],
      "name": "TransferToNonERC721ReceiverImplementer",
      "type": "error"
    },
    {
      "inputs": [],
      "name": "TransferToZeroAddress",
      "type": "error"
    },
    {
      "inputs": [],
      "name": "URIQueryForNonexistentToken",
      "type": "error"
    },
    {
      "anonymous": false,
      "inputs": [
        {
          "indexed": true,
          "internalType": "address",
          "name": "owner",
          "type": "address"
        },
        {
          "indexed": true,
          "internalType": "address",
          "name": "approved",
          "type": "address"
        },
        {
          "indexed": true,
          "internalType": "uint256",
          "name": "tokenId",
          "type": "uint256"
        }
      ],
      "name": "Approval",
      "type": "event"
    },
    {
      "anonymous": false,
      "inputs": [
        {
          "indexed": true,
          "internalType": "address",
          "name": "owner",
          "type": "address"
        },
        {
          "indexed": true,
          "internalType": "address",
          "name": "operator",
          "type": "address"
        },
        {
          "indexed": false,
          "internalType": "bool",
          "name": "approved",
          "type": "bool"
        }
      ],
      "name": "ApprovalForAll",
      "type": "event"
    },
    {
      "anonymous": false,
      "inputs": [
        {
          "indexed": true,
          "internalType": "address",
          "name": "previousOwner",
          "type": "address"
        },
        {
          "indexed": true,
          "internalType": "address",
          "name": "newOwner",
          "type": "address"
        }
      ],
      "name": "OwnershipTransferred",
      "type": "event"
    },
    {
      "anonymous": false,
      "inputs": [
        {
          "indexed": true,
          "internalType": "address",
          "name": "from",
          "type": "address"
        },
        {
          "indexed": true,
          "internalType": "address",
          "name": "to",
          "type": "address"
        },
        {
          "indexed": true,
          "internalType": "uint256",
          "name": "tokenId",
          "type": "uint256"
        }
      ],
      "name": "Transfer",
      "type": "event"
    },
    {
      "inputs": [
        {
          "internalType": "address",
          "name": "to",
          "type": "address"
        },
        {
          "internalType": "uint256",
          "name": "tokenId",
          "type": "uint256"
        }
      ],
      "name": "approve",
      "outputs": [],
      "stateMutability": "nonpayable",
      "type": "function"
    },
    {
      "inputs": [
        {
          "internalType": "address",
          "name": "owner",
          "type": "address"
        }
      ],
      "name": "balanceOf",
      "outputs": [
        {
          "internalType": "uint256",
          "name": "",
          "type": "uint256"
        }
      ],
      "stateMutability": "view",
      "type": "function"
    },
    {
      "inputs": [
        {
          "internalType": "uint256",
          "name": "tokenId",
          "type": "uint256"
        }
      ],
      "name": "getApproved",
      "outputs": [
        {
          "internalType": "address",
          "name": "",
          "type": "address"
        }
      ],
      "stateMutability": "view",
      "type": "function"
    },
    {
      "inputs": [
        {
          "internalType": "address",
          "name": "owner",
          "type": "address"
        },
        {
          "internalType": "address",
          "name": "operator",
          "type": "address"
        }
      ],
      "name": "isApprovedForAll",
      "outputs": [
        {
          "internalType": "bool",
          "name": "",
          "type": "bool"
        }
      ],
      "stateMutability": "view",
      "type": "function"
    },
    {
      "inputs": [],
      "name": "name",
      "outputs": [
        {
          "internalType": "string",
          "name": "",
          "type": "string"
        }
      ],
      "stateMutability": "view",
      "type": "function"
    },
    {
      "inputs": [],
      "name": "owner",
      "outputs": [
        {
          "internalType": "address",
          "name": "",
          "type": "address"
        }
      ],
      "stateMutability": "view",
      "type": "function"
    },
    {
      "inputs": [
        {
          "internalType": "uint256",
          "name": "tokenId",
          "type": "uint256"
        }
      ],
      "name": "ownerOf",
      "outputs": [
        {
          "internalType": "address",
          "name": "",
          "type": "address"
        }
      ],
      "stateMutability": "view",
      "type": "function"
    },
    {
      "inputs": [],
      "name": "price",
      "outputs": [
        {
          "internalType": "uint256",
          "name": "",
          "type": "uint256"
        }
      ],
      "stateMutability": "view",
      "type": "function"
    },
    {
      "inputs": [],
      "name": "publicMint",
      "outputs": [],
      "stateMutability": "payable",
      "type": "function"
    },
    {
      "inputs": [],
      "name": "renounceOwnership",
      "outputs": [],
      "stateMutability": "nonpayable",
      "type": "function"
    },
    {
      "inputs": [
        {
          "internalType": "address",
          "name": "from",
          "type": "address"
        },
        {
          "internalType": "address",
          "name": "to",
          "type": "address"
        },
        {
          "internalType": "uint256",
          "name": "tokenId",
          "type": "uint256"
        }
      ],
      "name": "safeTransferFrom",
      "outputs": [],
      "stateMutability": "nonpayable",
      "type": "function"
    },
    {
      "inputs": [
        {
          "internalType": "address",
          "name": "from",
          "type": "address"
        },
        {
          "internalType": "address",
          "name": "to",
          "type": "address"
        },
        {
          "internalType": "uint256",
          "name": "tokenId",
          "type": "uint256"
        },
        {
          "internalType": "bytes",
          "name": "_data",
          "type": "bytes"
        }
      ],
      "name": "safeTransferFrom",
      "outputs": [],
      "stateMutability": "nonpayable",
      "type": "function"
    },
    {
      "inputs": [
        {
          "internalType": "address",
          "name": "operator",
          "type": "address"
        },
        {
          "internalType": "bool",
          "name": "approved",
          "type": "bool"
        }
      ],
      "name": "setApprovalForAll",
      "outputs": [],
      "stateMutability": "nonpayable",
      "type": "function"
    },
    {
      "inputs": [
        {
          "internalType": "string",
          "name": "baseUri",
          "type": "string"
        }
      ],
      "name": "setBaseURI",
      "outputs": [],
      "stateMutability": "nonpayable",
      "type": "function"
    },
    {
      "inputs": [
        {
          "internalType": "bytes32",
          "name": "whitelistMerkleRoot",
          "type": "bytes32"
        }
      ],
      "name": "setMerkleRoot",
      "outputs": [],
      "stateMutability": "nonpayable",
      "type": "function"
    },
    {
      "inputs": [
        {
          "internalType": "uint256",
          "name": "price_",
          "type": "uint256"
        }
      ],
      "name": "setPrice",
      "outputs": [],
      "stateMutability": "nonpayable",
      "type": "function"
    },
    {
      "inputs": [
        {
          "internalType": "bytes4",
          "name": "interfaceId",
          "type": "bytes4"
        }
      ],
      "name": "supportsInterface",
      "outputs": [
        {
          "internalType": "bool",
          "name": "",
          "type": "bool"
        }
      ],
      "stateMutability": "view",
      "type": "function"
    },
    {
      "inputs": [],
      "name": "symbol",
      "outputs": [
        {
          "internalType": "string",
          "name": "",
          "type": "string"
        }
      ],
      "stateMutability": "view",
      "type": "function"
    },
    {
      "inputs": [],
      "name": "toggleWhitelist",
      "outputs": [],
      "stateMutability": "nonpayable",
      "type": "function"
    },
    {
      "inputs": [
        {
          "internalType": "uint256",
          "name": "tokenId",
          "type": "uint256"
        }
      ],
      "name": "tokenURI",
      "outputs": [
        {
          "internalType": "string",
          "name": "",
          "type": "string"
        }
      ],
      "stateMutability": "view",
      "type": "function"
    },
    {
      "inputs": [],
      "name": "totalSupply",
      "outputs": [
        {
          "internalType": "uint256",
          "name": "",
          "type": "uint256"
        }
      ],
      "stateMutability": "view",
      "type": "function"
    },
    {
      "inputs": [
        {
          "internalType": "address",
          "name": "from",
          "type": "address"
        },
        {
          "internalType": "address",
          "name": "to",
          "type": "address"
        },
        {
          "internalType": "uint256",
          "name": "tokenId",
          "type": "uint256"
        }
      ],
      "name": "transferFrom",
      "outputs": [],
      "stateMutability": "nonpayable",
      "type": "function"
    },
    {
      "inputs": [
        {
          "internalType": "address",
          "name": "newOwner",
          "type": "address"
        }
      ],
      "name": "transferOwnership",
      "outputs": [],
      "stateMutability": "nonpayable",
      "type": "function"
    },
    {
      "inputs": [
        {
          "internalType": "address",
          "name": "",
          "type": "address"
        }
      ],
      "name": "userHasMinted",
      "outputs": [
        {
          "internalType": "bool",
          "name": "",
          "type": "bool"
        }
      ],
      "stateMutability": "view",
      "type": "function"
    },
    {
      "inputs": [],
      "name": "whitelistFinished",
      "outputs": [
        {
          "internalType": "bool",
          "name": "",
          "type": "bool"
        }
      ],
      "stateMutability": "view",
      "type": "function"
    },
    {
      "inputs": [
        {
          "internalType": "bytes32[]",
          "name": "_merkleProof",
          "type": "bytes32[]"
        }
      ],
      "name": "whitelistMint",
      "outputs": [],
      "stateMutability": "payable",
      "type": "function"
    },
    {
      "inputs": [
        {
          "internalType": "address payable",
          "name": "to",
          "type": "address"
        }
      ],
      "name": "withdrawBalance",
      "outputs": [],
      "stateMutability": "nonpayable",
      "type": "function"
    },
    {
      "stateMutability": "payable",
      "type": "receive"
    }
  ],
  "bytecode": "0x60806040523480156200001157600080fd5b5060405162003f4e38038062003f4e833981810160405281019062000037919062000450565b82828160029080519060200190620000519291906200018d565b5080600390805190602001906200006a9291906200018d565b5050506200008d62000081620000bf60201b60201c565b620000c760201b60201c565b83600b8190555080600a9080519060200190620000ac9291906200018d565b5084600981905550505050505062000599565b600033905090565b6000600860009054906101000a900473ffffffffffffffffffffffffffffffffffffffff16905081600860006101000a81548173ffffffffffffffffffffffffffffffffffffffff021916908373ffffffffffffffffffffffffffffffffffffffff1602179055508173ffffffffffffffffffffffffffffffffffffffff168173ffffffffffffffffffffffffffffffffffffffff167f8be0079c531659141344cd1fd0a4f28419497f9722a3daafe3b4186f6b6457e060405160405180910390a35050565b8280546200019b9062000564565b90600052602060002090601f016020900481019282620001bf57600085556200020b565b82601f10620001da57805160ff19168380011785556200020b565b828001600101855582156200020b579182015b828111156200020a578251825591602001919060010190620001ed565b5b5090506200021a91906200021e565b5090565b5b80821115620002395760008160009055506001016200021f565b5090565b6000604051905090565b600080fd5b600080fd5b6000819050919050565b620002668162000251565b81146200027257600080fd5b50565b60008151905062000286816200025b565b92915050565b6000819050919050565b620002a1816200028c565b8114620002ad57600080fd5b50565b600081519050620002c18162000296565b92915050565b600080fd5b600080fd5b6000601f19601f8301169050919050565b7f4e487b7100000000000000000000000000000000000000000000000000000000600052604160045260246000fd5b6200031c82620002d1565b810181811067ffffffffffffffff821117156200033e576200033d620002e2565b5b80604052505050565b6000620003536200023d565b905062000361828262000311565b919050565b600067ffffffffffffffff821115620003845762000383620002e2565b5b6200038f82620002d1565b9050602081019050919050565b60005b83811015620003bc5780820151818401526020810190506200039f565b83811115620003cc576000848401525b50505050565b6000620003e9620003e38462000366565b62000347565b905082815260208101848484011115620004085762000407620002cc565b5b620004158482856200039c565b509392505050565b600082601f830112620004355762000434620002c7565b5b815162000447848260208601620003d2565b91505092915050565b600080600080600060a086880312156200046f576200046e62000247565b5b60006200047f8882890162000275565b95505060206200049288828901620002b0565b945050604086015167ffffffffffffffff811115620004b657620004b56200024c565b5b620004c4888289016200041d565b935050606086015167ffffffffffffffff811115620004e857620004e76200024c565b5b620004f6888289016200041d565b925050608086015167ffffffffffffffff8111156200051a57620005196200024c565b5b62000528888289016200041d565b9150509295509295909350565b7f4e487b7100000000000000000000000000000000000000000000000000000000600052602260045260246000fd5b600060028204905060018216806200057d57607f821691505b60208210810362000593576200059262000535565b5b50919050565b6139a580620005a96000396000f3fe6080604052600436106101a05760003560e01c806370a08231116100ec57806395d89b411161008a578063b88d4fde11610064578063b88d4fde1461057b578063c87b56dd146105a4578063e985e9c5146105e1578063f2fde38b1461061e576101a7565b806395d89b41146104fc578063a035b1fe14610527578063a22cb46514610552576101a7565b80637cb64759116100c65780637cb64759146104685780637e15144b146104915780638da5cb5b146104a857806391b7f5ed146104d3576101a7565b806370a08231146103eb578063715018a614610428578063756af45f1461043f576101a7565b806323b872dd116101595780633889342b116101335780633889342b1461033157806342842e0e1461035c57806355f804b3146103855780636352211e146103ae576101a7565b806323b872dd146102e257806326092b831461030b578063372f657c14610315576101a7565b806301ffc9a7146101ac57806306fdde03146101e9578063081812fc14610214578063095ea7b31461025157806318160ddd1461027a5780631d985778146102a5576101a7565b366101a757005b600080fd5b3480156101b857600080fd5b506101d360048036038101906101ce9190612956565b610647565b6040516101e0919061299e565b60405180910390f35b3480156101f557600080fd5b506101fe610659565b60405161020b9190612a52565b60405180910390f35b34801561022057600080fd5b5061023b60048036038101906102369190612aaa565b6106eb565b6040516102489190612b18565b60405180910390f35b34801561025d57600080fd5b5061027860048036038101906102739190612b5f565b610767565b005b34801561028657600080fd5b5061028f610871565b60405161029c9190612bae565b60405180910390f35b3480156102b157600080fd5b506102cc60048036038101906102c79190612bc9565b61087f565b6040516102d9919061299e565b60405180910390f35b3480156102ee57600080fd5b5061030960048036038101906103049190612bf6565b61089f565b005b6103136108af565b005b61032f600480360381019061032a9190612cae565b610967565b005b34801561033d57600080fd5b50610346610a72565b604051610353919061299e565b60405180910390f35b34801561036857600080fd5b50610383600480360381019061037e9190612bf6565b610a85565b005b34801561039157600080fd5b506103ac60048036038101906103a79190612e2b565b610ae6565b005b3480156103ba57600080fd5b506103d560048036038101906103d09190612aaa565b610b7c565b6040516103e29190612b18565b60405180910390f35b3480156103f757600080fd5b50610412600480360381019061040d9190612bc9565b610b92565b60405161041f9190612bae565b60405180910390f35b34801561043457600080fd5b5061043d610c61565b005b34801561044b57600080fd5b5061046660048036038101906104619190612eb2565b610ce9565b005b34801561047457600080fd5b5061048f600480360381019061048a9190612f15565b610daf565b005b34801561049d57600080fd5b506104a6610e35565b005b3480156104b457600080fd5b506104bd610edd565b6040516104ca9190612b18565b60405180910390f35b3480156104df57600080fd5b506104fa60048036038101906104f59190612aaa565b610f07565b005b34801561050857600080fd5b50610511610f8d565b60405161051e9190612a52565b60405180910390f35b34801561053357600080fd5b5061053c61101f565b6040516105499190612bae565b60405180910390f35b34801561055e57600080fd5b5061057960048036038101906105749190612f6e565b611025565b005b34801561058757600080fd5b506105a2600480360381019061059d919061304f565b61119c565b005b3480156105b057600080fd5b506105cb60048036038101906105c69190612aaa565b6111ef565b6040516105d89190612a52565b60405180910390f35b3480156105ed57600080fd5b50610608600480360381019061060391906130d2565b61128d565b604051610615919061299e565b60405180910390f35b34801561062a57600080fd5b5061064560048036038101906106409190612bc9565b611321565b005b600061065282611418565b9050919050565b60606002805461066890613141565b80601f016020809104026020016040519081016040528092919081815260200182805461069490613141565b80156106e15780601f106106b6576101008083540402835291602001916106e1565b820191906000526020600020905b8154815290600101906020018083116106c457829003601f168201915b5050505050905090565b60006106f6826114fa565b61072c576040517fcf4700e400000000000000000000000000000000000000000000000000000000815260040160405180910390fd5b6006600083815260200190815260200160002060009054906101000a900473ffffffffffffffffffffffffffffffffffffffff169050919050565b600061077282610b7c565b90508073ffffffffffffffffffffffffffffffffffffffff168373ffffffffffffffffffffffffffffffffffffffff16036107d9576040517f943f7b8c00000000000000000000000000000000000000000000000000000000815260040160405180910390fd5b8073ffffffffffffffffffffffffffffffffffffffff166107f8611534565b73ffffffffffffffffffffffffffffffffffffffff161415801561082a575061082881610823611534565b61128d565b155b15610861576040517fcfb3b94200000000000000000000000000000000000000000000000000000000815260040160405180910390fd5b61086c83838361153c565b505050565b600060015460005403905090565b600d6020528060005260406000206000915054906101000a900460ff1681565b6108aa8383836115ee565b505050565b600c60009054906101000a900460ff166108fe576040517f08c379a00000000000000000000000000000000000000000000000000000000081526004016108f5906131be565b60405180910390fd5b6064600161090a610871565b610914919061320d565b1115610955576040517f08c379a000000000000000000000000000000000000000000000000000000000815260040161094c906132af565b60405180910390fd5b610965610960611534565b611add565b565b600c60009054906101000a900460ff16156109b7576040517f08c379a00000000000000000000000000000000000000000000000000000000081526004016109ae9061331b565b60405180910390fd5b605a60016109c3610871565b6109cd919061320d565b1115610a0e576040517f08c379a0000000000000000000000000000000000000000000000000000000008152600401610a0590613387565b60405180910390fd5b6000610a18611534565b9050610a25838383611c14565b610a64576040517f08c379a0000000000000000000000000000000000000000000000000000000008152600401610a5b906133f3565b60405180910390fd5b610a6d81611add565b505050565b600c60009054906101000a900460ff1681565b610a908383836115ee565b610aab83838360405180602001604052806000815250611c9a565b610ae1576040517fd1a57ed600000000000000000000000000000000000000000000000000000000815260040160405180910390fd5b505050565b610aee611534565b73ffffffffffffffffffffffffffffffffffffffff16610b0c610edd565b73ffffffffffffffffffffffffffffffffffffffff1614610b62576040517f08c379a0000000000000000000000000000000000000000000000000000000008152600401610b599061345f565b60405180910390fd5b80600a9080519060200190610b78929190612804565b5050565b6000610b8782611e18565b600001519050919050565b60008073ffffffffffffffffffffffffffffffffffffffff168273ffffffffffffffffffffffffffffffffffffffff1603610bf9576040517f8f4eb60400000000000000000000000000000000000000000000000000000000815260040160405180910390fd5b600560008373ffffffffffffffffffffffffffffffffffffffff1673ffffffffffffffffffffffffffffffffffffffff16815260200190815260200160002060000160009054906101000a900467ffffffffffffffff1667ffffffffffffffff169050919050565b610c69611534565b73ffffffffffffffffffffffffffffffffffffffff16610c87610edd565b73ffffffffffffffffffffffffffffffffffffffff1614610cdd576040517f08c379a0000000000000000000000000000000000000000000000000000000008152600401610cd49061345f565b60405180910390fd5b610ce76000612094565b565b610cf1611534565b73ffffffffffffffffffffffffffffffffffffffff16610d0f610edd565b73ffffffffffffffffffffffffffffffffffffffff1614610d65576040517f08c379a0000000000000000000000000000000000000000000000000000000008152600401610d5c9061345f565b60405180910390fd5b8073ffffffffffffffffffffffffffffffffffffffff166108fc479081150290604051600060405180830381858888f19350505050158015610dab573d6000803e3d6000fd5b5050565b610db7611534565b73ffffffffffffffffffffffffffffffffffffffff16610dd5610edd565b73ffffffffffffffffffffffffffffffffffffffff1614610e2b576040517f08c379a0000000000000000000000000000000000000000000000000000000008152600401610e229061345f565b60405180910390fd5b80600b8190555050565b610e3d611534565b73ffffffffffffffffffffffffffffffffffffffff16610e5b610edd565b73ffffffffffffffffffffffffffffffffffffffff1614610eb1576040517f08c379a0000000000000000000000000000000000000000000000000000000008152600401610ea89061345f565b60405180910390fd5b600c60009054906101000a900460ff1615600c60006101000a81548160ff021916908315150217905550565b6000600860009054906101000a900473ffffffffffffffffffffffffffffffffffffffff16905090565b610f0f611534565b73ffffffffffffffffffffffffffffffffffffffff16610f2d610edd565b73ffffffffffffffffffffffffffffffffffffffff1614610f83576040517f08c379a0000000000000000000000000000000000000000000000000000000008152600401610f7a9061345f565b60405180910390fd5b8060098190555050565b606060038054610f9c90613141565b80601f0160208091040260200160405190810160405280929190818152602001828054610fc890613141565b80156110155780601f10610fea57610100808354040283529160200191611015565b820191906000526020600020905b815481529060010190602001808311610ff857829003601f168201915b5050505050905090565b60095481565b61102d611534565b73ffffffffffffffffffffffffffffffffffffffff168273ffffffffffffffffffffffffffffffffffffffff1603611091576040517fb06307db00000000000000000000000000000000000000000000000000000000815260040160405180910390fd5b806007600061109e611534565b73ffffffffffffffffffffffffffffffffffffffff1673ffffffffffffffffffffffffffffffffffffffff16815260200190815260200160002060008473ffffffffffffffffffffffffffffffffffffffff1673ffffffffffffffffffffffffffffffffffffffff16815260200190815260200160002060006101000a81548160ff0219169083151502179055508173ffffffffffffffffffffffffffffffffffffffff1661114b611534565b73ffffffffffffffffffffffffffffffffffffffff167f17307eab39ab6107e8899845ad3d59bd9653f200f220920489ca2b5937696c3183604051611190919061299e565b60405180910390a35050565b6111a78484846115ee565b6111b384848484611c9a565b6111e9576040517fd1a57ed600000000000000000000000000000000000000000000000000000000815260040160405180910390fd5b50505050565b60606111fa826114fa565b611230576040517fa14c4b5000000000000000000000000000000000000000000000000000000000815260040160405180910390fd5b600061123a61215a565b9050600081510361125a5760405180602001604052806000815250611285565b80611264846121ec565b604051602001611275929190613507565b6040516020818303038152906040525b915050919050565b6000600760008473ffffffffffffffffffffffffffffffffffffffff1673ffffffffffffffffffffffffffffffffffffffff16815260200190815260200160002060008373ffffffffffffffffffffffffffffffffffffffff1673ffffffffffffffffffffffffffffffffffffffff16815260200190815260200160002060009054906101000a900460ff16905092915050565b611329611534565b73ffffffffffffffffffffffffffffffffffffffff16611347610edd565b73ffffffffffffffffffffffffffffffffffffffff161461139d576040517f08c379a00000000000000000000000000000000000000000000000000000000081526004016113949061345f565b60405180910390fd5b600073ffffffffffffffffffffffffffffffffffffffff168173ffffffffffffffffffffffffffffffffffffffff160361140c576040517f08c379a0000000000000000000000000000000000000000000000000000000008152600401611403906135a8565b60405180910390fd5b61141581612094565b50565b60007f80ac58cd000000000000000000000000000000000000000000000000000000007bffffffffffffffffffffffffffffffffffffffffffffffffffffffff1916827bffffffffffffffffffffffffffffffffffffffffffffffffffffffff191614806114e357507f5b5e139f000000000000000000000000000000000000000000000000000000007bffffffffffffffffffffffffffffffffffffffffffffffffffffffff1916827bffffffffffffffffffffffffffffffffffffffffffffffffffffffff1916145b806114f357506114f28261234c565b5b9050919050565b600080548210801561152d575060046000838152602001908152602001600020600001601c9054906101000a900460ff16155b9050919050565b600033905090565b826006600084815260200190815260200160002060006101000a81548173ffffffffffffffffffffffffffffffffffffffff021916908373ffffffffffffffffffffffffffffffffffffffff160217905550818373ffffffffffffffffffffffffffffffffffffffff168273ffffffffffffffffffffffffffffffffffffffff167f8c5be1e5ebec7d5bd14f71427d1e84f3dd0314c0f7b2291e5b200ac8c7c3b92560405160405180910390a4505050565b60006115f982611e18565b90506000816000015173ffffffffffffffffffffffffffffffffffffffff16611620611534565b73ffffffffffffffffffffffffffffffffffffffff1614806116535750611652826000015161164d611534565b61128d565b5b806116985750611661611534565b73ffffffffffffffffffffffffffffffffffffffff16611680846106eb565b73ffffffffffffffffffffffffffffffffffffffff16145b9050806116d1576040517f59c896be00000000000000000000000000000000000000000000000000000000815260040160405180910390fd5b8473ffffffffffffffffffffffffffffffffffffffff16826000015173ffffffffffffffffffffffffffffffffffffffff161461173a576040517fa114810000000000000000000000000000000000000000000000000000000000815260040160405180910390fd5b600073ffffffffffffffffffffffffffffffffffffffff168473ffffffffffffffffffffffffffffffffffffffff16036117a0576040517fea553b3400000000000000000000000000000000000000000000000000000000815260040160405180910390fd5b6117ad85858560016123b6565b6117bd600084846000015161153c565b6001600560008773ffffffffffffffffffffffffffffffffffffffff1673ffffffffffffffffffffffffffffffffffffffff16815260200190815260200160002060000160008282829054906101000a900467ffffffffffffffff160392506101000a81548167ffffffffffffffff021916908367ffffffffffffffff1602179055506001600560008673ffffffffffffffffffffffffffffffffffffffff1673ffffffffffffffffffffffffffffffffffffffff16815260200190815260200160002060000160008282829054906101000a900467ffffffffffffffff160192506101000a81548167ffffffffffffffff021916908367ffffffffffffffff160217905550836004600085815260200190815260200160002060000160006101000a81548173ffffffffffffffffffffffffffffffffffffffff021916908373ffffffffffffffffffffffffffffffffffffffff160217905550426004600085815260200190815260200160002060000160146101000a81548167ffffffffffffffff021916908367ffffffffffffffff1602179055506000600184019050600073ffffffffffffffffffffffffffffffffffffffff166004600083815260200190815260200160002060000160009054906101000a900473ffffffffffffffffffffffffffffffffffffffff1673ffffffffffffffffffffffffffffffffffffffff1603611a6d57600054811015611a6c5782600001516004600083815260200190815260200160002060000160006101000a81548173ffffffffffffffffffffffffffffffffffffffff021916908373ffffffffffffffffffffffffffffffffffffffff16021790555082602001516004600083815260200190815260200160002060000160146101000a81548167ffffffffffffffff021916908367ffffffffffffffff1602179055505b5b50828473ffffffffffffffffffffffffffffffffffffffff168673ffffffffffffffffffffffffffffffffffffffff167fddf252ad1be2c89b69c2b068fc378daa952ba7f163c4a11628f55a4df523b3ef60405160405180910390a4611ad685858560016123bc565b5050505050565b6009543414611b21576040517f08c379a0000000000000000000000000000000000000000000000000000000008152600401611b1890613614565b60405180910390fd5b600d60008273ffffffffffffffffffffffffffffffffffffffff1673ffffffffffffffffffffffffffffffffffffffff16815260200190815260200160002060009054906101000a900460ff1615611bae576040517f08c379a0000000000000000000000000000000000000000000000000000000008152600401611ba590613680565b60405180910390fd5b6001600d60008373ffffffffffffffffffffffffffffffffffffffff1673ffffffffffffffffffffffffffffffffffffffff16815260200190815260200160002060006101000a81548160ff021916908315150217905550611c118160016123c2565b50565b600060011515611c8e858580806020026020016040519081016040528093929190818152602001838360200280828437600081840152601f19601f82011690508083019250505050505050600b5485604051602001611c7391906136e8565b604051602081830303815290604052805190602001206123e0565b15151490509392505050565b6000611cbb8473ffffffffffffffffffffffffffffffffffffffff166123f7565b15611e0b578373ffffffffffffffffffffffffffffffffffffffff1663150b7a02611ce4611534565b8786866040518563ffffffff1660e01b8152600401611d069493929190613758565b6020604051808303816000875af1925050508015611d4257506040513d601f19601f82011682018060405250810190611d3f91906137b9565b60015b611dbb573d8060008114611d72576040519150601f19603f3d011682016040523d82523d6000602084013e611d77565b606091505b506000815103611db3576040517fd1a57ed600000000000000000000000000000000000000000000000000000000815260040160405180910390fd5b805181602001fd5b63150b7a0260e01b7bffffffffffffffffffffffffffffffffffffffffffffffffffffffff1916817bffffffffffffffffffffffffffffffffffffffffffffffffffffffff191614915050611e10565b600190505b949350505050565b611e2061288a565b600082905060005481101561205d576000600460008381526020019081526020016000206040518060600160405290816000820160009054906101000a900473ffffffffffffffffffffffffffffffffffffffff1673ffffffffffffffffffffffffffffffffffffffff1673ffffffffffffffffffffffffffffffffffffffff1681526020016000820160149054906101000a900467ffffffffffffffff1667ffffffffffffffff1667ffffffffffffffff16815260200160008201601c9054906101000a900460ff1615151515815250509050806040015161205b57600073ffffffffffffffffffffffffffffffffffffffff16816000015173ffffffffffffffffffffffffffffffffffffffff1614611f3f57809250505061208f565b5b60011561205a57818060019003925050600460008381526020019081526020016000206040518060600160405290816000820160009054906101000a900473ffffffffffffffffffffffffffffffffffffffff1673ffffffffffffffffffffffffffffffffffffffff1673ffffffffffffffffffffffffffffffffffffffff1681526020016000820160149054906101000a900467ffffffffffffffff1667ffffffffffffffff1667ffffffffffffffff16815260200160008201601c9054906101000a900460ff1615151515815250509050600073ffffffffffffffffffffffffffffffffffffffff16816000015173ffffffffffffffffffffffffffffffffffffffff161461205557809250505061208f565b611f40565b5b505b6040517fdf2d9b4200000000000000000000000000000000000000000000000000000000815260040160405180910390fd5b919050565b6000600860009054906101000a900473ffffffffffffffffffffffffffffffffffffffff16905081600860006101000a81548173ffffffffffffffffffffffffffffffffffffffff021916908373ffffffffffffffffffffffffffffffffffffffff1602179055508173ffffffffffffffffffffffffffffffffffffffff168173ffffffffffffffffffffffffffffffffffffffff167f8be0079c531659141344cd1fd0a4f28419497f9722a3daafe3b4186f6b6457e060405160405180910390a35050565b6060600a805461216990613141565b80601f016020809104026020016040519081016040528092919081815260200182805461219590613141565b80156121e25780601f106121b7576101008083540402835291602001916121e2565b820191906000526020600020905b8154815290600101906020018083116121c557829003601f168201915b5050505050905090565b606060008203612233576040518060400160405280600181526020017f30000000000000000000000000000000000000000000000000000000000000008152509050612347565b600082905060005b6000821461226557808061224e906137e6565b915050600a8261225e919061385d565b915061223b565b60008167ffffffffffffffff81111561228157612280612d00565b5b6040519080825280601f01601f1916602001820160405280156122b35781602001600182028036833780820191505090505b5090505b60008514612340576001826122cc919061388e565b9150600a856122db91906138c2565b60306122e7919061320d565b60f81b8183815181106122fd576122fc6138f3565b5b60200101907effffffffffffffffffffffffffffffffffffffffffffffffffffffffffffff1916908160001a905350600a85612339919061385d565b94506122b7565b8093505050505b919050565b60007f01ffc9a7000000000000000000000000000000000000000000000000000000007bffffffffffffffffffffffffffffffffffffffffffffffffffffffff1916827bffffffffffffffffffffffffffffffffffffffffffffffffffffffff1916149050919050565b50505050565b50505050565b6123dc82826040518060200160405280600081525061240a565b5050565b6000826123ed858461241c565b1490509392505050565b600080823b905060008111915050919050565b61241783838360016124cf565b505050565b60008082905060005b84518110156124c4576000858281518110612443576124426138f3565b5b60200260200101519050808311612484578281604051602001612467929190613943565b6040516020818303038152906040528051906020012092506124b0565b8083604051602001612497929190613943565b6040516020818303038152906040528051906020012092505b5080806124bc906137e6565b915050612425565b508091505092915050565b600080549050600073ffffffffffffffffffffffffffffffffffffffff168573ffffffffffffffffffffffffffffffffffffffff160361253b576040517f2e07630000000000000000000000000000000000000000000000000000000000815260040160405180910390fd5b60008403612575576040517fb562e8dd00000000000000000000000000000000000000000000000000000000815260040160405180910390fd5b61258260008683876123b6565b83600560008773ffffffffffffffffffffffffffffffffffffffff1673ffffffffffffffffffffffffffffffffffffffff16815260200190815260200160002060000160008282829054906101000a900467ffffffffffffffff160192506101000a81548167ffffffffffffffff021916908367ffffffffffffffff16021790555083600560008773ffffffffffffffffffffffffffffffffffffffff1673ffffffffffffffffffffffffffffffffffffffff16815260200190815260200160002060000160088282829054906101000a900467ffffffffffffffff160192506101000a81548167ffffffffffffffff021916908367ffffffffffffffff160217905550846004600083815260200190815260200160002060000160006101000a81548173ffffffffffffffffffffffffffffffffffffffff021916908373ffffffffffffffffffffffffffffffffffffffff160217905550426004600083815260200190815260200160002060000160146101000a81548167ffffffffffffffff021916908367ffffffffffffffff160217905550600081905060005b858110156127e757818773ffffffffffffffffffffffffffffffffffffffff16600073ffffffffffffffffffffffffffffffffffffffff167fddf252ad1be2c89b69c2b068fc378daa952ba7f163c4a11628f55a4df523b3ef60405160405180910390a483801561279b57506127996000888488611c9a565b155b156127d2576040517fd1a57ed600000000000000000000000000000000000000000000000000000000815260040160405180910390fd5b81806001019250508080600101915050612720565b5080600081905550506127fd60008683876123bc565b5050505050565b82805461281090613141565b90600052602060002090601f0160209004810192826128325760008555612879565b82601f1061284b57805160ff1916838001178555612879565b82800160010185558215612879579182015b8281111561287857825182559160200191906001019061285d565b5b50905061288691906128cd565b5090565b6040518060600160405280600073ffffffffffffffffffffffffffffffffffffffff168152602001600067ffffffffffffffff1681526020016000151581525090565b5b808211156128e65760008160009055506001016128ce565b5090565b6000604051905090565b600080fd5b600080fd5b60007fffffffff0000000000000000000000000000000000000000000000000000000082169050919050565b612933816128fe565b811461293e57600080fd5b50565b6000813590506129508161292a565b92915050565b60006020828403121561296c5761296b6128f4565b5b600061297a84828501612941565b91505092915050565b60008115159050919050565b61299881612983565b82525050565b60006020820190506129b3600083018461298f565b92915050565b600081519050919050565b600082825260208201905092915050565b60005b838110156129f35780820151818401526020810190506129d8565b83811115612a02576000848401525b50505050565b6000601f19601f8301169050919050565b6000612a24826129b9565b612a2e81856129c4565b9350612a3e8185602086016129d5565b612a4781612a08565b840191505092915050565b60006020820190508181036000830152612a6c8184612a19565b905092915050565b6000819050919050565b612a8781612a74565b8114612a9257600080fd5b50565b600081359050612aa481612a7e565b92915050565b600060208284031215612ac057612abf6128f4565b5b6000612ace84828501612a95565b91505092915050565b600073ffffffffffffffffffffffffffffffffffffffff82169050919050565b6000612b0282612ad7565b9050919050565b612b1281612af7565b82525050565b6000602082019050612b2d6000830184612b09565b92915050565b612b3c81612af7565b8114612b4757600080fd5b50565b600081359050612b5981612b33565b92915050565b60008060408385031215612b7657612b756128f4565b5b6000612b8485828601612b4a565b9250506020612b9585828601612a95565b9150509250929050565b612ba881612a74565b82525050565b6000602082019050612bc36000830184612b9f565b92915050565b600060208284031215612bdf57612bde6128f4565b5b6000612bed84828501612b4a565b91505092915050565b600080600060608486031215612c0f57612c0e6128f4565b5b6000612c1d86828701612b4a565b9350506020612c2e86828701612b4a565b9250506040612c3f86828701612a95565b9150509250925092565b600080fd5b600080fd5b600080fd5b60008083601f840112612c6e57612c6d612c49565b5b8235905067ffffffffffffffff811115612c8b57612c8a612c4e565b5b602083019150836020820283011115612ca757612ca6612c53565b5b9250929050565b60008060208385031215612cc557612cc46128f4565b5b600083013567ffffffffffffffff811115612ce357612ce26128f9565b5b612cef85828601612c58565b92509250509250929050565b600080fd5b7f4e487b7100000000000000000000000000000000000000000000000000000000600052604160045260246000fd5b612d3882612a08565b810181811067ffffffffffffffff82111715612d5757612d56612d00565b5b80604052505050565b6000612d6a6128ea565b9050612d768282612d2f565b919050565b600067ffffffffffffffff821115612d9657612d95612d00565b5b612d9f82612a08565b9050602081019050919050565b82818337600083830152505050565b6000612dce612dc984612d7b565b612d60565b905082815260208101848484011115612dea57612de9612cfb565b5b612df5848285612dac565b509392505050565b600082601f830112612e1257612e11612c49565b5b8135612e22848260208601612dbb565b91505092915050565b600060208284031215612e4157612e406128f4565b5b600082013567ffffffffffffffff811115612e5f57612e5e6128f9565b5b612e6b84828501612dfd565b91505092915050565b6000612e7f82612ad7565b9050919050565b612e8f81612e74565b8114612e9a57600080fd5b50565b600081359050612eac81612e86565b92915050565b600060208284031215612ec857612ec76128f4565b5b6000612ed684828501612e9d565b91505092915050565b6000819050919050565b612ef281612edf565b8114612efd57600080fd5b50565b600081359050612f0f81612ee9565b92915050565b600060208284031215612f2b57612f2a6128f4565b5b6000612f3984828501612f00565b91505092915050565b612f4b81612983565b8114612f5657600080fd5b50565b600081359050612f6881612f42565b92915050565b60008060408385031215612f8557612f846128f4565b5b6000612f9385828601612b4a565b9250506020612fa485828601612f59565b9150509250929050565b600067ffffffffffffffff821115612fc957612fc8612d00565b5b612fd282612a08565b9050602081019050919050565b6000612ff2612fed84612fae565b612d60565b90508281526020810184848401111561300e5761300d612cfb565b5b613019848285612dac565b509392505050565b600082601f83011261303657613035612c49565b5b8135613046848260208601612fdf565b91505092915050565b60008060008060808587031215613069576130686128f4565b5b600061307787828801612b4a565b945050602061308887828801612b4a565b935050604061309987828801612a95565b925050606085013567ffffffffffffffff8111156130ba576130b96128f9565b5b6130c687828801613021565b91505092959194509250565b600080604083850312156130e9576130e86128f4565b5b60006130f785828601612b4a565b925050602061310885828601612b4a565b9150509250929050565b7f4e487b7100000000000000000000000000000000000000000000000000000000600052602260045260246000fd5b6000600282049050600182168061315957607f821691505b60208210810361316c5761316b613112565b5b50919050565b7f57484954454c4953545f4e4f545f5945545f46494e4953484544000000000000600082015250565b60006131a8601a836129c4565b91506131b382613172565b602082019050919050565b600060208201905081810360008301526131d78161319b565b9050919050565b7f4e487b7100000000000000000000000000000000000000000000000000000000600052601160045260246000fd5b600061321882612a74565b915061322383612a74565b9250827fffffffffffffffffffffffffffffffffffffffffffffffffffffffffffffffff03821115613258576132576131de565b5b828201905092915050565b7f4d41585f535550504c595f524541434845440000000000000000000000000000600082015250565b60006132996012836129c4565b91506132a482613263565b602082019050919050565b600060208201905081810360008301526132c88161328c565b9050919050565b7f57484954454c4953545f46494e49534845440000000000000000000000000000600082015250565b60006133056012836129c4565b9150613310826132cf565b602082019050919050565b60006020820190508181036000830152613334816132f8565b9050919050565b7f4d41585f57484954454c4953545f4d494e545f52454143484544000000000000600082015250565b6000613371601a836129c4565b915061337c8261333b565b602082019050919050565b600060208201905081810360008301526133a081613364565b9050919050565b7f57484954454c4953545f4e4f545f564552494649454400000000000000000000600082015250565b60006133dd6016836129c4565b91506133e8826133a7565b602082019050919050565b6000602082019050818103600083015261340c816133d0565b9050919050565b7f4f776e61626c653a2063616c6c6572206973206e6f7420746865206f776e6572600082015250565b60006134496020836129c4565b915061345482613413565b602082019050919050565b600060208201905081810360008301526134788161343c565b9050919050565b600081905092915050565b6000613495826129b9565b61349f818561347f565b93506134af8185602086016129d5565b80840191505092915050565b7f2e6a736f6e000000000000000000000000000000000000000000000000000000600082015250565b60006134f160058361347f565b91506134fc826134bb565b600582019050919050565b6000613513828561348a565b915061351f828461348a565b915061352a826134e4565b91508190509392505050565b7f4f776e61626c653a206e6577206f776e657220697320746865207a65726f206160008201527f6464726573730000000000000000000000000000000000000000000000000000602082015250565b60006135926026836129c4565b915061359d82613536565b604082019050919050565b600060208201905081810360008301526135c181613585565b9050919050565b7f57524f4e475f5052494345000000000000000000000000000000000000000000600082015250565b60006135fe600b836129c4565b9150613609826135c8565b602082019050919050565b6000602082019050818103600083015261362d816135f1565b9050919050565b7f414c52454144595f4d494e544544000000000000000000000000000000000000600082015250565b600061366a600e836129c4565b915061367582613634565b602082019050919050565b600060208201905081810360008301526136998161365d565b9050919050565b60008160601b9050919050565b60006136b8826136a0565b9050919050565b60006136ca826136ad565b9050919050565b6136e26136dd82612af7565b6136bf565b82525050565b60006136f482846136d1565b60148201915081905092915050565b600081519050919050565b600082825260208201905092915050565b600061372a82613703565b613734818561370e565b93506137448185602086016129d5565b61374d81612a08565b840191505092915050565b600060808201905061376d6000830187612b09565b61377a6020830186612b09565b6137876040830185612b9f565b8181036060830152613799818461371f565b905095945050505050565b6000815190506137b38161292a565b92915050565b6000602082840312156137cf576137ce6128f4565b5b60006137dd848285016137a4565b91505092915050565b60006137f182612a74565b91507fffffffffffffffffffffffffffffffffffffffffffffffffffffffffffffffff8203613823576138226131de565b5b600182019050919050565b7f4e487b7100000000000000000000000000000000000000000000000000000000600052601260045260246000fd5b600061386882612a74565b915061387383612a74565b9250826138835761388261382e565b5b828204905092915050565b600061389982612a74565b91506138a483612a74565b9250828210156138b7576138b66131de565b5b828203905092915050565b60006138cd82612a74565b91506138d883612a74565b9250826138e8576138e761382e565b5b828206905092915050565b7f4e487b7100000000000000000000000000000000000000000000000000000000600052603260045260246000fd5b6000819050919050565b61393d61393882612edf565b613922565b82525050565b600061394f828561392c565b60208201915061395f828461392c565b602082019150819050939250505056fea26469706673582212205107b3d3697ef34eeef7f852f4f6dd81cc7b9b80d2e0b4a7c0a9f20368830b7864736f6c634300080d0033",
  "linkReferences": {},
  "deployedLinkReferences": {}
}